{
  "contractName": "LiquidateLoan",
  "abi": [
    {
      "inputs": [
        {
          "internalType": "contract ILendingPoolAddressesProvider",
          "name": "_addressProvider",
          "type": "address"
        },
        {
          "internalType": "contract IUniswapV2Router02",
          "name": "_ubeswapV2Router",
          "type": "address"
        }
      ],
      "stateMutability": "nonpayable",
      "type": "constructor"
    },
    {
      "anonymous": false,
      "inputs": [
        {
          "indexed": false,
          "internalType": "string",
          "name": "stringFailure",
          "type": "string"
        }
      ],
      "name": "ErrorHandled",
      "type": "event"
    },
    {
      "anonymous": false,
      "inputs": [
        {
          "indexed": true,
          "internalType": "address",
          "name": "previousOwner",
          "type": "address"
        },
        {
          "indexed": true,
          "internalType": "address",
          "name": "newOwner",
          "type": "address"
        }
      ],
      "name": "OwnershipTransferred",
      "type": "event"
    },
    {
      "inputs": [],
      "name": "isOwner",
      "outputs": [
        {
          "internalType": "bool",
          "name": "",
          "type": "bool"
        }
      ],
      "stateMutability": "view",
      "type": "function"
    },
    {
      "inputs": [],
      "name": "owner",
      "outputs": [
        {
          "internalType": "address",
          "name": "",
          "type": "address"
        }
      ],
      "stateMutability": "view",
      "type": "function"
    },
    {
      "inputs": [],
      "name": "renounceOwnership",
      "outputs": [],
      "stateMutability": "nonpayable",
      "type": "function"
    },
    {
      "inputs": [
        {
          "internalType": "address",
          "name": "newOwner",
          "type": "address"
        }
      ],
      "name": "transferOwnership",
      "outputs": [],
      "stateMutability": "nonpayable",
      "type": "function"
    },
    {
      "stateMutability": "payable",
      "type": "receive"
    },
    {
      "inputs": [
        {
          "internalType": "address[]",
          "name": "assets",
          "type": "address[]"
        },
        {
          "internalType": "uint256[]",
          "name": "amounts",
          "type": "uint256[]"
        },
        {
          "internalType": "uint256[]",
          "name": "premiums",
          "type": "uint256[]"
        },
        {
          "internalType": "address",
          "name": "",
          "type": "address"
        },
        {
          "internalType": "bytes",
          "name": "params",
          "type": "bytes"
        }
      ],
      "name": "executeOperation",
      "outputs": [
        {
          "internalType": "bool",
          "name": "",
          "type": "bool"
        }
      ],
      "stateMutability": "nonpayable",
      "type": "function"
    },
    {
      "inputs": [
        {
          "internalType": "address",
          "name": "_assetToLiquidate",
          "type": "address"
        },
        {
          "internalType": "uint256",
          "name": "_flashAmt",
          "type": "uint256"
        },
        {
          "internalType": "address",
          "name": "_collateral",
          "type": "address"
        },
        {
          "internalType": "address",
          "name": "_userToLiquidate",
          "type": "address"
        }
      ],
      "name": "executeFlashLoans",
      "outputs": [],
      "stateMutability": "nonpayable",
      "type": "function"
    }
  ],
  "bytecode": "0x608060405234801561001057600080fd5b5060405161141c38038061141c8339818101604052604081101561003357600080fd5b508051602091820151600080546001600160a01b0319166001600160a01b03841690811790915560408051630261bf8b60e01b81529051939492938593630261bf8b9260048082019391829003018186803b15801561009157600080fd5b505afa1580156100a5573d6000803e3d6000fd5b505050506040513d60208110156100bb57600080fd5b5051600180546001600160a01b039283166001600160a01b03199182161790915560028054909116331790819055604051911691506000907f8be0079c531659141344cd1fd0a4f28419497f9722a3daafe3b4186f6b6457e0908290a3600380546001600160a01b0319166001600160a01b03848116919091179182905560408051630261bf8b60e01b815290519290911691630261bf8b91600480820192602092909190829003018186803b15801561017457600080fd5b505afa158015610188573d6000803e3d6000fd5b505050506040513d602081101561019e57600080fd5b5051600580546001600160a01b039283166001600160a01b031991821617909155600480549390921692169190911790555061123d806101df6000396000f3fe6080604052600436106100695760003560e01c8063920f5c8411610043578063920f5c84146100e6578063aefe50bd14610266578063f2fde38b146102af57610070565b8063715018a6146100755780638da5cb5b1461008c5780638f32d59b146100bd57610070565b3661007057005b600080fd5b34801561008157600080fd5b5061008a6102e2565b005b34801561009857600080fd5b506100a1610392565b604080516001600160a01b039092168252519081900360200190f35b3480156100c957600080fd5b506100d26103a2565b604080519115158252519081900360200190f35b3480156100f257600080fd5b506100d2600480360360a081101561010957600080fd5b81019060208101813564010000000081111561012457600080fd5b82018360208201111561013657600080fd5b8035906020019184602083028401116401000000008311171561015857600080fd5b91939092909160208101903564010000000081111561017657600080fd5b82018360208201111561018857600080fd5b803590602001918460208302840111640100000000831117156101aa57600080fd5b9193909290916020810190356401000000008111156101c857600080fd5b8201836020820111156101da57600080fd5b803590602001918460208302840111640100000000831117156101fc57600080fd5b919390926001600160a01b038335169260408101906020013564010000000081111561022757600080fd5b82018360208201111561023957600080fd5b8035906020019184600183028401116401000000008311171561025b57600080fd5b5090925090506103b3565b34801561027257600080fd5b5061008a6004803603608081101561028957600080fd5b506001600160a01b0381358116916020810135916040820135811691606001351661066d565b3480156102bb57600080fd5b5061008a600480360360208110156102d257600080fd5b50356001600160a01b031661099e565b6102ea6103a2565b61033b576040805162461bcd60e51b815260206004820181905260248201527f4f776e61626c653a2063616c6c6572206973206e6f7420746865206f776e6572604482015290519081900360640190fd5b6002546040516000916001600160a01b0316907f8be0079c531659141344cd1fd0a4f28419497f9722a3daafe3b4186f6b6457e0908390a36002805473ffffffffffffffffffffffffffffffffffffffff19169055565b6002546001600160a01b03165b90565b6002546001600160a01b0316331490565b6000806000848460408110156103c857600080fd5b506001600160a01b0381358116935060209091013516905060008a8a82816103ec57fe5b90506020020135905060008d8d600081811061040457fe5b905060200201356001600160a01b0316905060008a8a600081811061042557fe5b90506020020135905060006104438285610a0390919063ffffffff16565b9050610453868487876000610a64565b61045e868483610bda565b6000836001600160a01b03166370a08231306040518263ffffffff1660e01b815260040180826001600160a01b0316815260200191505060206040518083038186803b1580156104ad57600080fd5b505afa1580156104c1573d6000803e3d6000fd5b505050506040513d60208110156104d757600080fd5b5051905060006104f16104ea8786610a03565b8390610faf565b905060008111610548576040805162461bcd60e51b815260206004820152600960248201527f4e6f2070726f6669740000000000000000000000000000000000000000000000604482015290519081900360640190fd5b846001600160a01b031663a9059cbb61055f610392565b836040518363ffffffff1660e01b815260040180836001600160a01b0316815260200182815260200192505050602060405180830381600087803b1580156105a657600080fd5b505af11580156105ba573d6000803e3d6000fd5b505050506040513d60208110156105d057600080fd5b50506001546040805163095ea7b360e01b81526001600160a01b0392831660048201526024810186905290519187169163095ea7b3916044808201926020929091908290030181600087803b15801561062857600080fd5b505af115801561063c573d6000803e3d6000fd5b505050506040513d602081101561065257600080fd5b50600199505050505050505050509998505050505050505050565b6106756103a2565b6106c6576040805162461bcd60e51b815260206004820181905260248201527f4f776e61626c653a2063616c6c6572206973206e6f7420746865206f776e6572604482015290519081900360640190fd5b6040805160018082528183019092523091606091906020808301908036833701905050905085816000815181106106f957fe5b6001600160a01b039290921660209283029190910190910152604080516001808252818301909252606091816020016020820280368337019050509050858160008151811061074457fe5b602090810291909101015260408051600180825281830190925260609181602001602082028036833701905050905060008160008151811061078257fe5b602090810291909101810191909152604080516001600160a01b03808a16828501528089168284015282518083038401815260608301938490526001547fab9c4b5d00000000000000000000000000000000000000000000000000000000909452888216606484019081523060e485018190526000610124860181905260e0608487019081528b516101448801528b51929894979196919095169463ab9c4b5d948d948d948d948d948d948d948d94909360a481019260c482019261010483019261016401918d810191028083838b5b8381101561086a578181015183820152602001610852565b5050505090500185810384528a818151815260200191508051906020019060200280838360005b838110156108a9578181015183820152602001610891565b50505050905001858103835289818151815260200191508051906020019060200280838360005b838110156108e85781810151838201526020016108d0565b50505050905001858103825287818151815260200191508051906020019080838360005b8381101561092457818101518382015260200161090c565b50505050905090810190601f1680156109515780820380516001836020036101000a031916815260200191505b509b505050505050505050505050600060405180830381600087803b15801561097957600080fd5b505af115801561098d573d6000803e3d6000fd5b505050505050505050505050505050565b6109a66103a2565b6109f7576040805162461bcd60e51b815260206004820181905260248201527f4f776e61626c653a2063616c6c6572206973206e6f7420746865206f776e6572604482015290519081900360640190fd5b610a0081610ff1565b50565b600082820183811015610a5d576040805162461bcd60e51b815260206004820152601b60248201527f536166654d6174683a206164646974696f6e206f766572666c6f770000000000604482015290519081900360640190fd5b9392505050565b6001546040805163095ea7b360e01b81526001600160a01b0392831660048201526024810185905290519186169163095ea7b3916044808201926020929091908290030181600087803b158015610aba57600080fd5b505af1158015610ace573d6000803e3d6000fd5b505050506040513d6020811015610ae457600080fd5b5051610b37576040805162461bcd60e51b815260206004820152600e60248201527f417070726f76616c206572726f72000000000000000000000000000000000000604482015290519081900360640190fd5b600154604080517ea718a90000000000000000000000000000000000000000000000000000000081526001600160a01b038881166004830152878116602483015286811660448301526064820186905284151560848301529151919092169162a718a99160a480830192600092919082900301818387803b158015610bbb57600080fd5b505af1158015610bcf573d6000803e3d6000fd5b505050505050505050565b604080517f70a0823100000000000000000000000000000000000000000000000000000000815230600482015290518491600091600a4201916001600160a01b038516916370a0823191602480820192602092909190829003018186803b158015610c4457600080fd5b505afa158015610c58573d6000803e3d6000fd5b505050506040513d6020811015610c6e57600080fd5b5051600480546040805163095ea7b360e01b81526001600160a01b0392831693810193909352602483018490525192945085169163095ea7b3916044808201926020929091908290030181600087803b158015610cca57600080fd5b505af1158015610cde573d6000803e3d6000fd5b505050506040513d6020811015610cf457600080fd5b505060408051600280825260608083018452926020830190803683370190505090508681600081518110610d2457fe5b60200260200101906001600160a01b031690816001600160a01b0316815250508581600181518110610d5257fe5b6001600160a01b03928316602091820292909201810191909152600480546040517f38ed1739000000000000000000000000000000000000000000000000000000008152918201878152602483018a905230606484018190526084840188905260a060448501908152875160a4860152875193909616956338ed1739958a958d958a958c949093909260c40191878201910280838360005b83811015610e02578181015183820152602001610dea565b505050509050019650505050505050600060405180830381600087803b158015610e2b57600080fd5b505af1925050508015610eed57506040513d6000823e601f3d908101601f191682016040526020811015610e5e57600080fd5b8101908080516040519392919084640100000000821115610e7e57600080fd5b908301906020820185811115610e9357600080fd5b8251866020820283011164010000000082111715610eb057600080fd5b82525081516020918201928201910280838360005b83811015610edd578181015183820152602001610ec5565b5050505090500160405250505060015b610fa457610ef961113c565b80610f045750610f9f565b7f4f17d5cf0427b4fe5e5649c407d3021315cfaa7216c9e58c369ef3937c40801a816040518080602001828103825283818151815260200191508051906020019080838360005b83811015610f63578181015183820152602001610f4b565b50505050905090810190601f168015610f905780820380516001836020036101000a031916815260200191505b509250505060405180910390a1505b610fa6565b505b50505050505050565b6000610a5d83836040518060400160405280601e81526020017f536166654d6174683a207375627472616374696f6e206f766572666c6f77000081525061109f565b6001600160a01b0381166110365760405162461bcd60e51b81526004018080602001828103825260268152602001806111e26026913960400191505060405180910390fd5b6002546040516001600160a01b038084169216907f8be0079c531659141344cd1fd0a4f28419497f9722a3daafe3b4186f6b6457e090600090a36002805473ffffffffffffffffffffffffffffffffffffffff19166001600160a01b0392909216919091179055565b6000818484111561112e5760405162461bcd60e51b81526004018080602001828103825283818151815260200191508051906020019080838360005b838110156110f35781810151838201526020016110db565b50505050905090810190601f1680156111205780820380516001836020036101000a031916815260200191505b509250505060405180910390fd5b505050900390565b60e01c90565b600060443d101561114c5761039f565b600481823e6308c379a06111608251611136565b1461116a5761039f565b6040513d600319016004823e80513d67ffffffffffffffff816024840111818411171561119a575050505061039f565b828401925082519150808211156111b4575050505061039f565b503d830160208284010111156111cc5750505061039f565b601f01601f191681016020016040529150509056fe4f776e61626c653a206e6577206f776e657220697320746865207a65726f2061646472657373a26469706673582212200f542e476ab485fa2a037cd4ac0f77a24b28ac9ea377c6b0420f6f2b9b8a1c0a64736f6c634300060c0033",
  "immutableReferences": {},
  "source": "// SPDX-License-Identifier: agpl-3.0\npragma solidity >=0.6.12;\n\nimport \"./Ownable.sol\";\nimport \"./Ubeswap.sol\";\nimport { FlashLoanReceiverBase } from \"./FlashLoanReceiverBase.sol\";\nimport { ILendingPool, ILendingPoolAddressesProvider, IERC20 } from \"./Interfaces.sol\";\nimport { SafeMath } from \"./Libraries.sol\";\n\n/*\n* A contract that liquidates an aave loan using a flash loan:\n*\n*   call executeFlashLoans() to begin the liquidation\n*\n*/\ncontract LiquidateLoan is FlashLoanReceiverBase, Ownable {\n\n    ILendingPoolAddressesProvider provider;\n    IUniswapV2Router02 ubeswapV2Router;\n    using SafeMath for uint256;\n\n    address lendingPoolAddr;\n\n    event ErrorHandled(string stringFailure);\n\n    // intantiate lending pool addresses provider and get lending pool address\n    constructor(ILendingPoolAddressesProvider _addressProvider, IUniswapV2Router02 _ubeswapV2Router) FlashLoanReceiverBase(_addressProvider) public {\n        provider = _addressProvider;\n        lendingPoolAddr = provider.getLendingPool();\n\n        // instantiate ubeswap router to handle exchange\n        // TODO: use Celo contract kit to do fee-less exchange via Mento\n        ubeswapV2Router = IUniswapV2Router02(address(_ubeswapV2Router));\n    }\n\n    /**\n        This function is called after your contract has received the flash loaned amount\n     */\n    function executeOperation(\n        address[] calldata assets,\n        uint256[] calldata amounts,\n        uint256[] calldata premiums,\n        address /* initiator */,\n        bytes calldata params\n    )\n        external\n        override\n        returns (bool)\n    {\n        // collateral  the address of the token that we will be compensated in\n        // userToLiquidate - id of the user to liquidate\n        (address collateral, address userToLiquidate) = abi.decode(params, (address, address));\n\n        // liquidate unhealthy loan\n        uint256 loanAmount = amounts[0];\n        address loanAsset = assets[0];\n        uint256 flashloanFee = premiums[0];\n        uint256 flashLoanRepayment = loanAmount.add(flashloanFee);\n\n        liquidateLoan(collateral, loanAsset, userToLiquidate, loanAmount, false);\n\n        // swap collateral from collateral back to loan asset from flashloan to pay it off\n        // require at least the flash loan repayment amount out as a safety\n        swapCollateral(collateral, loanAsset, flashLoanRepayment);\n\n        uint256 balance = IERC20(loanAsset).balanceOf(address(this));\n        uint256 profit = balance.sub(loanAmount.add(flashloanFee));\n\n        // Pay to owner the profits\n        require(profit > 0 , \"No profit\");\n        IERC20(loanAsset).transfer(owner(), profit);\n\n        // Approve the LendingPool contract to *pull* the owed amount + premiums\n        IERC20(loanAsset).approve(address(_lendingPool), flashLoanRepayment);\n\n        return true;\n    }\n\n    function liquidateLoan(address _collateral, address _liquidate_asset, address _userToLiquidate, uint256 _amount, bool _receiveaToken) private {\n        require(IERC20(_liquidate_asset).approve(address(_lendingPool), _amount), \"Approval error\");\n        _lendingPool.liquidationCall(_collateral,_liquidate_asset, _userToLiquidate, _amount, _receiveaToken);\n    }\n\n\n    // assumes the balance of the token is on the contract\n    function swapCollateral(address asset_from, address asset_to, uint amountOutMin) private {\n        IERC20 asset_fromToken = IERC20(asset_from);\n        uint256 amountToTrade;\n        uint deadline;\n\n        // Set a small time limit\n        deadline = block.timestamp + 10;\n        amountToTrade = asset_fromToken.balanceOf(address(this));\n\n        // grant ubeswap access to your token\n        asset_fromToken.approve(address(ubeswapV2Router), amountToTrade);\n\n        // use direct swap path for simplicity\n        address[] memory swapPath = new address[](2);\n        swapPath[0] = asset_from;\n        swapPath[1] = asset_to;\n        \n        // Trade 1: Execute swap from asset_from into designated ERC20 token on ubeswap\n        try ubeswapV2Router.swapExactTokensForTokens(\n            amountToTrade,\n            amountOutMin,\n            swapPath,\n            address(this),\n            deadline\n        ){\n        }\n        catch Error(string memory reason)\n        {\n            // for debugging, swallow the error\n            emit ErrorHandled(reason);\n        }\n        catch\n        {\n\n        }\n\n    }\n\n    /*\n    * This function is manually called to commence the flash loans sequence\n    * to make executing a liquidation  flexible calculations are done outside of the contract and sent via parameters here\n    * _assetToLiquidate - the token address of the asset that will be liquidated\n    * _flashAmt - flash loan amount (number of tokens) which is exactly the amount that will be liquidated\n    * _collateral - the token address of the collateral. This is the token that will be received after liquidating loans\n    * _userToLiquidate - user ID of the loan that will be liquidated\n    */\n    function executeFlashLoans(address _assetToLiquidate, uint256 _flashAmt, address _collateral, address _userToLiquidate) public onlyOwner {\n        address receiverAddress = address(this);\n\n        // the various assets to be flashed\n        address[] memory assets = new address[](1);\n        assets[0] = _assetToLiquidate;\n\n        // the amount to be flashed for each asset\n        uint256[] memory amounts = new uint256[](1);\n        amounts[0] = _flashAmt;\n\n        // 0 = no debt, 1 = stable, 2 = variable\n        uint256[] memory modes = new uint256[](1);\n        modes[0] = 0;\n\n        // mode is set to 0, no debt will be accrued\n        address onBehalfOf = address(this);\n\n        // passing these params to executeOperation so that they can be used to liquidate the loan and perform the swap\n        bytes memory params = abi.encode(_collateral, _userToLiquidate);\n        uint16 referralCode = 0;\n\n        _lendingPool.flashLoan(\n            receiverAddress,\n            assets,\n            amounts,\n            modes,\n            onBehalfOf,\n            params,\n            referralCode\n        );\n    }\n\n}\n",
  "sourcePath": "/Users/diwu/Projects/moola-liquidator-contract/contracts/LiquidateLoan.sol",
  "compiler": {
    "name": "solc",
    "version": "0.6.12+commit.27d51765.Linux.g++"
  },
  "schemaVersion": "3.4.3",
  "updatedAt": "2021-10-16T07:48:54.296Z",
  "devdoc": {
    "kind": "dev",
    "methods": {
      "isOwner()": {
        "details": "Returns true if the caller is the current owner."
      },
      "owner()": {
        "details": "Returns the address of the current owner."
      },
      "renounceOwnership()": {
        "details": "Leaves the contract without owner. It will not be possible to call `onlyOwner` functions anymore. Can only be called by the current owner. > Note: Renouncing ownership will leave the contract without an owner, thereby removing any functionality that is only available to the owner."
      },
      "transferOwnership(address)": {
        "details": "Transfers ownership of the contract to a new account (`newOwner`). Can only be called by the current owner."
      }
    },
    "version": 1
  },
  "userdoc": {
    "kind": "user",
    "methods": {
      "executeOperation(address[],uint256[],uint256[],address,bytes)": {
        "notice": "This function is called after your contract has received the flash loaned amount"
      }
    },
    "version": 1
  }
}