{
  "contractName": "LiquidateLoan",
  "abi": [
    {
      "inputs": [
        {
          "internalType": "contract ILendingPoolAddressesProvider",
          "name": "_addressProvider",
          "type": "address"
        },
        {
          "internalType": "contract IUniswapV2Router02",
          "name": "_ubeswapV2Router",
          "type": "address"
        }
      ],
      "stateMutability": "nonpayable",
      "type": "constructor"
    },
    {
      "anonymous": false,
      "inputs": [
        {
          "indexed": false,
          "internalType": "string",
          "name": "stringFailure",
          "type": "string"
        }
      ],
      "name": "ErrorHandled",
      "type": "event"
    },
    {
      "anonymous": false,
      "inputs": [
        {
          "indexed": true,
          "internalType": "address",
          "name": "previousOwner",
          "type": "address"
        },
        {
          "indexed": true,
          "internalType": "address",
          "name": "newOwner",
          "type": "address"
        }
      ],
      "name": "OwnershipTransferred",
      "type": "event"
    },
    {
      "inputs": [],
      "name": "isOwner",
      "outputs": [
        {
          "internalType": "bool",
          "name": "",
          "type": "bool"
        }
      ],
      "stateMutability": "view",
      "type": "function"
    },
    {
      "inputs": [],
      "name": "owner",
      "outputs": [
        {
          "internalType": "address",
          "name": "",
          "type": "address"
        }
      ],
      "stateMutability": "view",
      "type": "function"
    },
    {
      "stateMutability": "payable",
      "type": "receive"
    },
    {
      "inputs": [
        {
          "internalType": "address[]",
          "name": "assets",
          "type": "address[]"
        },
        {
          "internalType": "uint256[]",
          "name": "amounts",
          "type": "uint256[]"
        },
        {
          "internalType": "uint256[]",
          "name": "premiums",
          "type": "uint256[]"
        },
        {
          "internalType": "address",
          "name": "",
          "type": "address"
        },
        {
          "internalType": "bytes",
          "name": "params",
          "type": "bytes"
        }
      ],
      "name": "executeOperation",
      "outputs": [
        {
          "internalType": "bool",
          "name": "",
          "type": "bool"
        }
      ],
      "stateMutability": "nonpayable",
      "type": "function"
    },
    {
      "inputs": [
        {
          "internalType": "address",
          "name": "_assetToLiquidate",
          "type": "address"
        },
        {
          "internalType": "uint256",
          "name": "_flashAmt",
          "type": "uint256"
        },
        {
          "internalType": "address",
          "name": "_collateral",
          "type": "address"
        },
        {
          "internalType": "address",
          "name": "_userToLiquidate",
          "type": "address"
        },
        {
          "internalType": "uint256",
          "name": "_amountOutMin",
          "type": "uint256"
        },
        {
          "internalType": "address[]",
          "name": "_swapPath",
          "type": "address[]"
        }
      ],
      "name": "executeFlashLoans",
      "outputs": [],
      "stateMutability": "nonpayable",
      "type": "function"
    }
  ],
  "bytecode": "0x608060405234801561001057600080fd5b506040516112fb3803806112fb8339818101604052604081101561003357600080fd5b508051602091820151600080546001600160a01b0319166001600160a01b03841690811790915560408051630261bf8b60e01b81529051939492938593630261bf8b9260048082019391829003018186803b15801561009157600080fd5b505afa1580156100a5573d6000803e3d6000fd5b505050506040513d60208110156100bb57600080fd5b5051600180546001600160a01b039283166001600160a01b03199182161790915560028054909116331790819055604051911691506000907f8be0079c531659141344cd1fd0a4f28419497f9722a3daafe3b4186f6b6457e0908290a3600380546001600160a01b0319166001600160a01b03848116919091179182905560408051630261bf8b60e01b815290519290911691630261bf8b91600480820192602092909190829003018186803b15801561017457600080fd5b505afa158015610188573d6000803e3d6000fd5b505050506040513d602081101561019e57600080fd5b5051600580546001600160a01b039283166001600160a01b031991821617909155600480549390921692169190911790555061111c806101df6000396000f3fe6080604052600436106100435760003560e01c80638da5cb5b1461004f5780638f32d59b14610080578063920f5c84146100a95780639b770a64146102295761004a565b3661004a57005b600080fd5b34801561005b57600080fd5b50610064610306565b604080516001600160a01b039092168252519081900360200190f35b34801561008c57600080fd5b50610095610316565b604080519115158252519081900360200190f35b3480156100b557600080fd5b50610095600480360360a08110156100cc57600080fd5b8101906020810181356401000000008111156100e757600080fd5b8201836020820111156100f957600080fd5b8035906020019184602083028401116401000000008311171561011b57600080fd5b91939092909160208101903564010000000081111561013957600080fd5b82018360208201111561014b57600080fd5b8035906020019184602083028401116401000000008311171561016d57600080fd5b91939092909160208101903564010000000081111561018b57600080fd5b82018360208201111561019d57600080fd5b803590602001918460208302840111640100000000831117156101bf57600080fd5b919390926001600160a01b03833516926040810190602001356401000000008111156101ea57600080fd5b8201836020820111156101fc57600080fd5b8035906020019184600183028401116401000000008311171561021e57600080fd5b509092509050610327565b34801561023557600080fd5b50610304600480360360c081101561024c57600080fd5b6001600160a01b03823581169260208101359260408201358316926060830135169160808101359181019060c0810160a082013564010000000081111561029257600080fd5b8201836020820111156102a457600080fd5b803590602001918460208302840111640100000000831117156102c657600080fd5b919080806020026020016040519081016040528093929190818152602001838360200280828437600092019190915250929550610691945050505050565b005b6002546001600160a01b03165b90565b6002546001600160a01b0316331490565b60008060008060608686608081101561033f57600080fd5b6001600160a01b0382358116926020810135909116916040820135919081019060808101606082013564010000000081111561037a57600080fd5b82018360208201111561038c57600080fd5b803590602001918460208302840111640100000000831117156103ae57600080fd5b919080806020026020016040519081016040528093929190818152602001838360200280828437600081840152601f19601f820116905080830192505050505050509192919290505050935093509350935060008c8c600081811061040f57fe5b90506020020135905060008f8f600081811061042757fe5b905060200201356001600160a01b03169050610447868287856000610a29565b610452868585610b9f565b6000816001600160a01b03166370a08231306040518263ffffffff1660e01b815260040180826001600160a01b0316815260200191505060206040518083038186803b1580156104a157600080fd5b505afa1580156104b5573d6000803e3d6000fd5b505050506040513d60208110156104cb57600080fd5b5051905060008d8d82816104db57fe5b90506020020135905060006105036104fc8387610f0690919063ffffffff16565b8490610f67565b90506000811161055a576040805162461bcd60e51b815260206004820152600960248201527f4e6f2070726f6669740000000000000000000000000000000000000000000000604482015290519081900360640190fd5b836001600160a01b031663a9059cbb610571610306565b836040518363ffffffff1660e01b815260040180836001600160a01b0316815260200182815260200192505050602060405180830381600087803b1580156105b857600080fd5b505af11580156105cc573d6000803e3d6000fd5b505050506040513d60208110156105e257600080fd5b50600090506105f18684610f06565b6001546040805163095ea7b360e01b81526001600160a01b0392831660048201526024810184905290519293509087169163095ea7b3916044808201926020929091908290030181600087803b15801561064a57600080fd5b505af115801561065e573d6000803e3d6000fd5b505050506040513d602081101561067457600080fd5b5060019b5050505050505050505050509998505050505050505050565b610699610316565b6106ea576040805162461bcd60e51b815260206004820181905260248201527f4f776e61626c653a2063616c6c6572206973206e6f7420746865206f776e6572604482015290519081900360640190fd5b60408051600180825281830190925230916060919060208083019080368337019050509050878160008151811061071d57fe5b6001600160a01b039290921660209283029190910190910152604080516001808252818301909252606091816020016020820280368337019050509050878160008151811061076857fe5b60209081029190910101526040805160018082528183019092526060918160200160208202803683370190505090506000816000815181106107a657fe5b602002602001018181525050600030905060608989898960405160200180856001600160a01b03168152602001846001600160a01b0316815260200183815260200180602001828103825283818151815260200191508051906020019060200280838360005b8381101561082457818101518382015260200161080c565b505050509050019550505050505060405160208183030381529060405290506000600160009054906101000a90046001600160a01b03166001600160a01b031663ab9c4b5d888888888888886040518863ffffffff1660e01b815260040180886001600160a01b03168152602001806020018060200180602001876001600160a01b03168152602001806020018661ffff16815260200185810385528b818151815260200191508051906020019060200280838360005b838110156108f35781810151838201526020016108db565b5050505090500185810384528a818151815260200191508051906020019060200280838360005b8381101561093257818101518382015260200161091a565b50505050905001858103835289818151815260200191508051906020019060200280838360005b83811015610971578181015183820152602001610959565b50505050905001858103825287818151815260200191508051906020019080838360005b838110156109ad578181015183820152602001610995565b50505050905090810190601f1680156109da5780820380516001836020036101000a031916815260200191505b509b505050505050505050505050600060405180830381600087803b158015610a0257600080fd5b505af1158015610a16573d6000803e3d6000fd5b5050505050505050505050505050505050565b6001546040805163095ea7b360e01b81526001600160a01b0392831660048201526024810185905290519186169163095ea7b3916044808201926020929091908290030181600087803b158015610a7f57600080fd5b505af1158015610a93573d6000803e3d6000fd5b505050506040513d6020811015610aa957600080fd5b5051610afc576040805162461bcd60e51b815260206004820152600e60248201527f417070726f76616c206572726f72000000000000000000000000000000000000604482015290519081900360640190fd5b600154604080517ea718a90000000000000000000000000000000000000000000000000000000081526001600160a01b038881166004830152878116602483015286811660448301526064820186905284151560848301529151919092169162a718a99160a480830192600092919082900301818387803b158015610b8057600080fd5b505af1158015610b94573d6000803e3d6000fd5b505050505050505050565b604080517f70a0823100000000000000000000000000000000000000000000000000000000815230600482015290518491600091600a4201916001600160a01b038516916370a0823191602480820192602092909190829003018186803b158015610c0957600080fd5b505afa158015610c1d573d6000803e3d6000fd5b505050506040513d6020811015610c3357600080fd5b5051600480546040805163095ea7b360e01b81526001600160a01b0392831693810193909352602483018490525192945085169163095ea7b3916044808201926020929091908290030181600087803b158015610c8f57600080fd5b505af1158015610ca3573d6000803e3d6000fd5b505050506040513d6020811015610cb957600080fd5b5050600480546040517f38ed17390000000000000000000000000000000000000000000000000000000081529182018481526024830188905230606484018190526084840185905260a060448501908152885160a486015288516001600160a01b03909416946338ed17399488948c948c9490938a9360c4909101906020878101910280838360005b83811015610d5a578181015183820152602001610d42565b505050509050019650505050505050600060405180830381600087803b158015610d8357600080fd5b505af1925050508015610e4557506040513d6000823e601f3d908101601f191682016040526020811015610db657600080fd5b8101908080516040519392919084640100000000821115610dd657600080fd5b908301906020820185811115610deb57600080fd5b8251866020820283011164010000000082111715610e0857600080fd5b82525081516020918201928201910280838360005b83811015610e35578181015183820152602001610e1d565b5050505090500160405250505060015b610efc57610e51611041565b80610e5c5750610ef7565b7f4f17d5cf0427b4fe5e5649c407d3021315cfaa7216c9e58c369ef3937c40801a816040518080602001828103825283818151815260200191508051906020019080838360005b83811015610ebb578181015183820152602001610ea3565b50505050905090810190601f168015610ee85780820380516001836020036101000a031916815260200191505b509250505060405180910390a1505b610efe565b505b505050505050565b600082820183811015610f60576040805162461bcd60e51b815260206004820152601b60248201527f536166654d6174683a206164646974696f6e206f766572666c6f770000000000604482015290519081900360640190fd5b9392505050565b6000610f6083836040518060400160405280601e81526020017f536166654d6174683a207375627472616374696f6e206f766572666c6f770000815250600081848411156110335760405162461bcd60e51b81526004018080602001828103825283818151815260200191508051906020019080838360005b83811015610ff8578181015183820152602001610fe0565b50505050905090810190601f1680156110255780820380516001836020036101000a031916815260200191505b509250505060405180910390fd5b505050900390565b60e01c90565b600060443d101561105157610313565b600481823e6308c379a0611065825161103b565b1461106f57610313565b6040513d600319016004823e80513d67ffffffffffffffff816024840111818411171561109f5750505050610313565b828401925082519150808211156110b95750505050610313565b503d830160208284010111156110d157505050610313565b601f01601f191681016020016040529150509056fea264697066735822122002374cdf28337f919362cd210aeef3c7754ea25dcc797b06ce22cb854b7ce24164736f6c634300060c0033",
  "immutableReferences": {},
  "source": "// SPDX-License-Identifier: agpl-3.0\npragma solidity >=0.6.12;\n\nimport \"./Ownable.sol\";\nimport \"./Ubeswap.sol\";\nimport { FlashLoanReceiverBase } from \"./FlashLoanReceiverBase.sol\";\nimport { ILendingPool, ILendingPoolAddressesProvider, IERC20 } from \"./Interfaces.sol\";\nimport { SafeMath } from \"./Libraries.sol\";\n\n/*\n* A contract that liquidates an aave loan using a flash loan:\n*\n*   call executeFlashLoans() to begin the liquidation\n*\n*/\ncontract LiquidateLoan is FlashLoanReceiverBase, Ownable {\n\n    ILendingPoolAddressesProvider provider;\n    IUniswapV2Router02 ubeswapV2Router;\n    using SafeMath for uint256;\n\n    address lendingPoolAddr;\n\n    event ErrorHandled(string stringFailure);\n\n    // intantiate lending pool addresses provider and get lending pool address\n    constructor(ILendingPoolAddressesProvider _addressProvider, IUniswapV2Router02 _ubeswapV2Router) FlashLoanReceiverBase(_addressProvider) public {\n        provider = _addressProvider;\n        lendingPoolAddr = provider.getLendingPool();\n\n        // instantiate ubeswap router to handle exchange\n        // TODO: use Celo contract kit to do fee-less exchange via Mento\n        ubeswapV2Router = IUniswapV2Router02(address(_ubeswapV2Router));\n    }\n\n    /**\n        This function is called after your contract has received the flash loaned amount\n     */\n    function executeOperation(\n        address[] calldata assets,\n        uint256[] calldata amounts,\n        uint256[] calldata premiums,\n        address /* initiator */,\n        bytes calldata params\n    )\n        external\n        override\n        returns (bool)\n    {\n\n        //collateral  the address of the token that we will be compensated in\n        //userToLiquidate - id of the user to liquidate\n        //amountOutMin - minimum amount of asset paid when swapping collateral\n\n        (address collateral, address userToLiquidate, uint256 amountOutMin, address[] memory swapPath) = abi.decode(params, (address, address, uint256, address[]));\n\n        // liquidate unhealthy loan\n        uint256 loanAmount = amounts[0];\n        address loanAsset = assets[0];\n        liquidateLoan(collateral, loanAsset, userToLiquidate, loanAmount, false);\n\n        // swap collateral from collateral back to loan asset from flashloan to pay it off\n        swapCollateral(collateral, amountOutMin, swapPath);\n\n        uint256 balance = IERC20(loanAsset).balanceOf(address(this));\n        uint256 loanFee = premiums[0];\n        uint256 profit = balance.sub(loanAmount.add(loanFee));\n\n        // Pay to owner the profits\n        require(profit > 0 , \"No profit\");\n        IERC20(loanAsset).transfer(owner(), profit);\n\n        // Approve the LendingPool contract to *pull* the owed amount + premiums\n        uint256 flashLoanRepayment = loanAmount.add(loanFee);\n        IERC20(loanAsset).approve(address(_lendingPool), flashLoanRepayment);\n\n        return true;\n    }\n\n    function liquidateLoan(address _collateral, address _liquidate_asset, address _userToLiquidate, uint256 _amount, bool _receiveaToken) private {\n        require(IERC20(_liquidate_asset).approve(address(_lendingPool), _amount), \"Approval error\");\n        _lendingPool.liquidationCall(_collateral,_liquidate_asset, _userToLiquidate, _amount, _receiveaToken);\n    }\n\n\n    // assumes the balance of the token is on the contract\n    function swapCollateral(address asset_from, uint amountOutMin, address[] memory swapPath ) private {\n        IERC20 asset_fromToken;\n        uint256 amountToTrade;\n        uint deadline;\n\n        // Set a small time limit\n        deadline = block.timestamp + 10;\n\n        asset_fromToken = IERC20(asset_from);\n        amountToTrade = asset_fromToken.balanceOf(address(this));\n\n        // grant ubeswap access to your token\n        asset_fromToken.approve(address(ubeswapV2Router), amountToTrade);\n\n        // Trade 1: Execute swap from asset_from into designated ERC20 token on ubeswap\n        try ubeswapV2Router.swapExactTokensForTokens(\n            amountToTrade,\n            amountOutMin,\n            swapPath,\n            address(this),\n            deadline\n        ){\n        }\n        catch Error(string memory reason)\n        {\n            // for debugging, swallow the error\n            emit ErrorHandled(reason);\n        }\n        catch\n        {\n\n        }\n\n    }\n\n    /*\n    * This function is manually called to commence the flash loans sequence\n    * to make executing a liquidation  flexible calculations are done outside of the contract and sent via parameters here\n    * _assetToLiquidate - the token address of the asset that will be liquidated\n    * _flashAmt - flash loan amount (number of tokens) which is exactly the amount that will be liquidated\n    * _collateral - the token address of the collateral. This is the token that will be received after liquidating loans\n    * _userToLiquidate - user ID of the loan that will be liquidated\n    * _amountOutMin - when using ubeswap this is used to make sure the swap returns a minimum number of tokens, or will revert\n    * _swapPath - the path that ubeswap will use to swap tokens back to original tokens\n\n    */\n    function executeFlashLoans(address _assetToLiquidate, uint256 _flashAmt, address _collateral, address _userToLiquidate, uint256 _amountOutMin, address[] memory _swapPath) public onlyOwner {\n        address receiverAddress = address(this);\n\n        // the various assets to be flashed\n        address[] memory assets = new address[](1);\n        assets[0] = _assetToLiquidate;\n\n        // the amount to be flashed for each asset\n        uint256[] memory amounts = new uint256[](1);\n        amounts[0] = _flashAmt;\n\n        // 0 = no debt, 1 = stable, 2 = variable\n        uint256[] memory modes = new uint256[](1);\n        modes[0] = 0;\n\n        // mode is set to 0, no debt will be accrued\n        address onBehalfOf = address(this);\n\n        // passing these params to executeOperation so that they can be used to liquidate the loan and perform the swap\n        bytes memory params = abi.encode(_collateral, _userToLiquidate, _amountOutMin, _swapPath);\n        uint16 referralCode = 0;\n\n        _lendingPool.flashLoan(\n            receiverAddress,\n            assets,\n            amounts,\n            modes,\n            onBehalfOf,\n            params,\n            referralCode\n        );\n    }\n\n}\n",
  "sourcePath": "/home/diwu/Projects/moola-liquidator-contract/contracts/LiquidateLoan.sol",
  "compiler": {
    "name": "solc",
    "version": "0.6.12+commit.27d51765.Linux.g++"
  },
  "schemaVersion": "3.4.3",
  "updatedAt": "2021-10-15T22:27:20.260Z",
  "devdoc": {
    "kind": "dev",
    "methods": {
      "isOwner()": {
        "details": "Returns true if the caller is the current owner."
      },
      "owner()": {
        "details": "Returns the address of the current owner."
      }
    },
    "version": 1
  },
  "userdoc": {
    "kind": "user",
    "methods": {
      "executeOperation(address[],uint256[],uint256[],address,bytes)": {
        "notice": "This function is called after your contract has received the flash loaned amount"
      }
    },
    "version": 1
  }
}