{
  "contractName": "LiquidateLoan",
  "abi": [
    {
      "inputs": [
        {
          "internalType": "contract ILendingPoolAddressesProvider",
          "name": "_addressProvider",
          "type": "address"
        },
        {
          "internalType": "contract IUniswapV2Router02",
          "name": "_ubeswapV2Router",
          "type": "address"
        }
      ],
      "stateMutability": "nonpayable",
      "type": "constructor"
    },
    {
      "anonymous": false,
      "inputs": [
        {
          "indexed": false,
          "internalType": "string",
          "name": "stringFailure",
          "type": "string"
        }
      ],
      "name": "ErrorHandled",
      "type": "event"
    },
    {
      "anonymous": false,
      "inputs": [
        {
          "indexed": true,
          "internalType": "address",
          "name": "previousOwner",
          "type": "address"
        },
        {
          "indexed": true,
          "internalType": "address",
          "name": "newOwner",
          "type": "address"
        }
      ],
      "name": "OwnershipTransferred",
      "type": "event"
    },
    {
      "anonymous": false,
      "inputs": [
        {
          "indexed": false,
          "internalType": "address",
          "name": "",
          "type": "address"
        },
        {
          "indexed": false,
          "internalType": "uint256",
          "name": "",
          "type": "uint256"
        }
      ],
      "name": "Received",
      "type": "event"
    },
    {
      "inputs": [],
      "name": "ADDRESSES_PROVIDER",
      "outputs": [
        {
          "internalType": "contract ILendingPoolAddressesProvider",
          "name": "",
          "type": "address"
        }
      ],
      "stateMutability": "view",
      "type": "function"
    },
    {
      "inputs": [],
      "name": "LENDING_POOL",
      "outputs": [
        {
          "internalType": "contract ILendingPool",
          "name": "",
          "type": "address"
        }
      ],
      "stateMutability": "view",
      "type": "function"
    },
    {
      "inputs": [],
      "name": "isOwner",
      "outputs": [
        {
          "internalType": "bool",
          "name": "",
          "type": "bool"
        }
      ],
      "stateMutability": "view",
      "type": "function"
    },
    {
      "inputs": [],
      "name": "owner",
      "outputs": [
        {
          "internalType": "address",
          "name": "",
          "type": "address"
        }
      ],
      "stateMutability": "view",
      "type": "function"
    },
    {
      "inputs": [],
      "name": "renounceOwnership",
      "outputs": [],
      "stateMutability": "nonpayable",
      "type": "function"
    },
    {
      "inputs": [
        {
          "internalType": "address",
          "name": "newOwner",
          "type": "address"
        }
      ],
      "name": "transferOwnership",
      "outputs": [],
      "stateMutability": "nonpayable",
      "type": "function"
    },
    {
      "stateMutability": "payable",
      "type": "receive"
    },
    {
      "inputs": [
        {
          "internalType": "address[]",
          "name": "assets",
          "type": "address[]"
        },
        {
          "internalType": "uint256[]",
          "name": "amounts",
          "type": "uint256[]"
        },
        {
          "internalType": "uint256[]",
          "name": "premiums",
          "type": "uint256[]"
        },
        {
          "internalType": "address",
          "name": "",
          "type": "address"
        },
        {
          "internalType": "bytes",
          "name": "params",
          "type": "bytes"
        }
      ],
      "name": "executeOperation",
      "outputs": [
        {
          "internalType": "bool",
          "name": "",
          "type": "bool"
        }
      ],
      "stateMutability": "nonpayable",
      "type": "function"
    },
    {
      "inputs": [
        {
          "internalType": "address",
          "name": "_assetToLiquidate",
          "type": "address"
        },
        {
          "internalType": "uint256",
          "name": "_flashAmt",
          "type": "uint256"
        },
        {
          "internalType": "address",
          "name": "_collateral",
          "type": "address"
        },
        {
          "internalType": "address",
          "name": "_userToLiquidate",
          "type": "address"
        }
      ],
      "name": "executeFlashLoans",
      "outputs": [],
      "stateMutability": "nonpayable",
      "type": "function"
    }
  ],
  "bytecode": "0x60e060405234801561001057600080fd5b506040516115763803806115768339818101604052604081101561003357600080fd5b5080516020918201516001600160601b0319606083901b1660805260408051630261bf8b60e01b815290519293919284926001600160a01b03841692630261bf8b9260048083019392829003018186803b15801561009057600080fd5b505afa1580156100a4573d6000803e3d6000fd5b505050506040513d60208110156100ba57600080fd5b505160601b6001600160601b03191660a0525060008054336001600160a01b0319909116178082556040516001600160a01b0390911691907f8be0079c531659141344cd1fd0a4f28419497f9722a3daafe3b4186f6b6457e0908290a36001600160601b031960609190911b1660c0525060805160601c60a05160601c60c05160601c6113fd61017960003980610dc85280610f2152508061068852806108905280610a7d5280610b765280610cb252508061035e52506113fd6000f3fe60806040526004361061007f5760003560e01c8063920f5c841161004e578063920f5c841461014b578063aefe50bd146102cb578063b4dcfc7714610314578063f2fde38b14610329576100c0565b80630542975c146100c5578063715018a6146100f65780638da5cb5b1461010d5780638f32d59b14610122576100c0565b366100c0576040805133815234602082015281517f88a5966d370b9919b20f3e2c13ff65706f196a4e32cc2c12bf57088f88525874929181900390910190a1005b600080fd5b3480156100d157600080fd5b506100da61035c565b604080516001600160a01b039092168252519081900360200190f35b34801561010257600080fd5b5061010b610380565b005b34801561011957600080fd5b506100da610430565b34801561012e57600080fd5b50610137610440565b604080519115158252519081900360200190f35b34801561015757600080fd5b50610137600480360360a081101561016e57600080fd5b81019060208101813564010000000081111561018957600080fd5b82018360208201111561019b57600080fd5b803590602001918460208302840111640100000000831117156101bd57600080fd5b9193909290916020810190356401000000008111156101db57600080fd5b8201836020820111156101ed57600080fd5b8035906020019184602083028401116401000000008311171561020f57600080fd5b91939092909160208101903564010000000081111561022d57600080fd5b82018360208201111561023f57600080fd5b8035906020019184602083028401116401000000008311171561026157600080fd5b919390926001600160a01b038335169260408101906020013564010000000081111561028c57600080fd5b82018360208201111561029e57600080fd5b803590602001918460018302840111640100000000831117156102c057600080fd5b509092509050610451565b3480156102d757600080fd5b5061010b600480360360808110156102ee57600080fd5b506001600160a01b03813581169160208101359160408201358116916060013516610728565b34801561032057600080fd5b506100da610a7b565b34801561033557600080fd5b5061010b6004803603602081101561034c57600080fd5b50356001600160a01b0316610a9f565b7f000000000000000000000000000000000000000000000000000000000000000081565b610388610440565b6103d9576040805162461bcd60e51b815260206004820181905260248201527f4f776e61626c653a2063616c6c6572206973206e6f7420746865206f776e6572604482015290519081900360640190fd5b600080546040516001600160a01b03909116907f8be0079c531659141344cd1fd0a4f28419497f9722a3daafe3b4186f6b6457e0908390a36000805473ffffffffffffffffffffffffffffffffffffffff19169055565b6000546001600160a01b03165b90565b6000546001600160a01b0316331490565b60008060008484604081101561046657600080fd5b506001600160a01b0381358116935060209091013516905060008a8a828161048a57fe5b90506020020135905060008d8d60008181106104a257fe5b905060200201356001600160a01b0316905060008a8a60008181106104c357fe5b90506020020135905060006104e18285610b0490919063ffffffff16565b90506104f1868487876000610b65565b6104fc868483610d1a565b6000836001600160a01b03166370a08231306040518263ffffffff1660e01b815260040180826001600160a01b0316815260200191505060206040518083038186803b15801561054b57600080fd5b505afa15801561055f573d6000803e3d6000fd5b505050506040513d602081101561057557600080fd5b50519050600061058f6105888786610b04565b8390611170565b9050600081116105e6576040805162461bcd60e51b815260206004820152600960248201527f4e6f2070726f6669740000000000000000000000000000000000000000000000604482015290519081900360640190fd5b846001600160a01b031663a9059cbb6105fd610430565b836040518363ffffffff1660e01b815260040180836001600160a01b0316815260200182815260200192505050602060405180830381600087803b15801561064457600080fd5b505af1158015610658573d6000803e3d6000fd5b505050506040513d602081101561066e57600080fd5b50506040805163095ea7b360e01b81526001600160a01b037f0000000000000000000000000000000000000000000000000000000000000000811660048301526024820186905291519187169163095ea7b3916044808201926020929091908290030181600087803b1580156106e357600080fd5b505af11580156106f7573d6000803e3d6000fd5b505050506040513d602081101561070d57600080fd5b50600199505050505050505050509998505050505050505050565b610730610440565b610781576040805162461bcd60e51b815260206004820181905260248201527f4f776e61626c653a2063616c6c6572206973206e6f7420746865206f776e6572604482015290519081900360640190fd5b6040805160018082528183019092523091606091906020808301908036833701905050905085816000815181106107b457fe5b6001600160a01b03929092166020928302919091019091015260408051600180825281830190925260609181602001602082028036833701905050905085816000815181106107ff57fe5b602090810291909101015260408051600180825281830190925260609181602001602082028036833701905050905060008160008151811061083d57fe5b60200260200101818152505060003090506060878760405160200180836001600160a01b03168152602001826001600160a01b0316815260200192505050604051602081830303815290604052905060007f00000000000000000000000000000000000000000000000000000000000000006001600160a01b031663ab9c4b5d888888888888886040518863ffffffff1660e01b815260040180886001600160a01b03168152602001806020018060200180602001876001600160a01b03168152602001806020018661ffff16815260200185810385528b818151815260200191508051906020019060200280838360005b8381101561094757818101518382015260200161092f565b5050505090500185810384528a818151815260200191508051906020019060200280838360005b8381101561098657818101518382015260200161096e565b50505050905001858103835289818151815260200191508051906020019060200280838360005b838110156109c55781810151838201526020016109ad565b50505050905001858103825287818151815260200191508051906020019080838360005b83811015610a015781810151838201526020016109e9565b50505050905090810190601f168015610a2e5780820380516001836020036101000a031916815260200191505b509b505050505050505050505050600060405180830381600087803b158015610a5657600080fd5b505af1158015610a6a573d6000803e3d6000fd5b505050505050505050505050505050565b7f000000000000000000000000000000000000000000000000000000000000000081565b610aa7610440565b610af8576040805162461bcd60e51b815260206004820181905260248201527f4f776e61626c653a2063616c6c6572206973206e6f7420746865206f776e6572604482015290519081900360640190fd5b610b01816111b2565b50565b600082820183811015610b5e576040805162461bcd60e51b815260206004820152601b60248201527f536166654d6174683a206164646974696f6e206f766572666c6f770000000000604482015290519081900360640190fd5b9392505050565b836001600160a01b031663095ea7b37f0000000000000000000000000000000000000000000000000000000000000000846040518363ffffffff1660e01b815260040180836001600160a01b0316815260200182815260200192505050602060405180830381600087803b158015610bdc57600080fd5b505af1158015610bf0573d6000803e3d6000fd5b505050506040513d6020811015610c0657600080fd5b5051610c59576040805162461bcd60e51b815260206004820152601d60248201527f4c6971756964617465206c6f616e20617070726f76616c206572726f72000000604482015290519081900360640190fd5b604080517ea718a90000000000000000000000000000000000000000000000000000000081526001600160a01b0387811660048301528681166024830152858116604483015260648201859052831515608483015291517f00000000000000000000000000000000000000000000000000000000000000009092169162a718a99160a48082019260009290919082900301818387803b158015610cfb57600080fd5b505af1158015610d0f573d6000803e3d6000fd5b505050505050505050565b604080517f70a0823100000000000000000000000000000000000000000000000000000000815230600482015290518491600091600a4201916001600160a01b038516916370a0823191602480820192602092909190829003018186803b158015610d8457600080fd5b505afa158015610d98573d6000803e3d6000fd5b505050506040513d6020811015610dae57600080fd5b50516040805163095ea7b360e01b81526001600160a01b037f0000000000000000000000000000000000000000000000000000000000000000811660048301526024820184905291519294509085169163095ea7b3916044808201926020929091908290030181600087803b158015610e2657600080fd5b505af1158015610e3a573d6000803e3d6000fd5b505050506040513d6020811015610e5057600080fd5b5051610ea3576040805162461bcd60e51b815260206004820152601660248201527f5562657377617020617070726f76616c206572726f7200000000000000000000604482015290519081900360640190fd5b60408051600280825260608083018452926020830190803683370190505090508681600081518110610ed157fe5b60200260200101906001600160a01b031690816001600160a01b0316815250508581600181518110610eff57fe5b60200260200101906001600160a01b031690816001600160a01b0316815250507f00000000000000000000000000000000000000000000000000000000000000006001600160a01b03166338ed173984878430876040518663ffffffff1660e01b81526004018086815260200185815260200180602001846001600160a01b03168152602001838152602001828103825285818151815260200191508051906020019060200280838360005b83811015610fc3578181015183820152602001610fab565b505050509050019650505050505050600060405180830381600087803b158015610fec57600080fd5b505af19250505080156110ae57506040513d6000823e601f3d908101601f19168201604052602081101561101f57600080fd5b810190808051604051939291908464010000000082111561103f57600080fd5b90830190602082018581111561105457600080fd5b825186602082028301116401000000008211171561107157600080fd5b82525081516020918201928201910280838360005b8381101561109e578181015183820152602001611086565b5050505090500160405250505060015b611165576110ba6112fc565b806110c55750611160565b7f4f17d5cf0427b4fe5e5649c407d3021315cfaa7216c9e58c369ef3937c40801a816040518080602001828103825283818151815260200191508051906020019080838360005b8381101561112457818101518382015260200161110c565b50505050905090810190601f1680156111515780820380516001836020036101000a031916815260200191505b509250505060405180910390a1505b611167565b505b50505050505050565b6000610b5e83836040518060400160405280601e81526020017f536166654d6174683a207375627472616374696f6e206f766572666c6f77000081525061125f565b6001600160a01b0381166111f75760405162461bcd60e51b81526004018080602001828103825260268152602001806113a26026913960400191505060405180910390fd5b600080546040516001600160a01b03808516939216917f8be0079c531659141344cd1fd0a4f28419497f9722a3daafe3b4186f6b6457e091a36000805473ffffffffffffffffffffffffffffffffffffffff19166001600160a01b0392909216919091179055565b600081848411156112ee5760405162461bcd60e51b81526004018080602001828103825283818151815260200191508051906020019080838360005b838110156112b357818101518382015260200161129b565b50505050905090810190601f1680156112e05780820380516001836020036101000a031916815260200191505b509250505060405180910390fd5b505050900390565b60e01c90565b600060443d101561130c5761043d565b600481823e6308c379a061132082516112f6565b1461132a5761043d565b6040513d600319016004823e80513d67ffffffffffffffff816024840111818411171561135a575050505061043d565b82840192508251915080821115611374575050505061043d565b503d8301602082840101111561138c5750505061043d565b601f01601f191681016020016040529150509056fe4f776e61626c653a206e6577206f776e657220697320746865207a65726f2061646472657373a264697066735822122095d4f74c0b816850bea03e61031233470cb88e3151990c46222112c1b93d9dba64736f6c634300060c0033",
  "immutableReferences": {
    "26": [
      {
        "length": 32,
        "start": 862
      }
    ],
    "29": [
      {
        "length": 32,
        "start": 1672
      },
      {
        "length": 32,
        "start": 2192
      },
      {
        "length": 32,
        "start": 2685
      },
      {
        "length": 32,
        "start": 2934
      },
      {
        "length": 32,
        "start": 3250
      }
    ],
    "1129": [
      {
        "length": 32,
        "start": 3528
      },
      {
        "length": 32,
        "start": 3873
      }
    ]
  },
  "source": "// SPDX-License-Identifier: agpl-3.0\npragma solidity >=0.6.12;\n\nimport \"./Ownable.sol\";\nimport \"./Ubeswap.sol\";\nimport { FlashLoanReceiverBase } from \"./FlashLoanReceiverBase.sol\";\nimport { ILendingPool, ILendingPoolAddressesProvider, IERC20 } from \"./Interfaces.sol\";\nimport { SafeMath } from \"./Libraries.sol\";\n\n/*\n* A contract that liquidates an aave loan using a flash loan:\n*\n*   call executeFlashLoans() to begin the liquidation\n*\n*/\ncontract LiquidateLoan is FlashLoanReceiverBase, Ownable {\n\n    IUniswapV2Router02 immutable ubeswapV2Router;\n    using SafeMath for uint256;\n\n    event ErrorHandled(string stringFailure);\n\n    // intantiate lending pool addresses provider and get lending pool address\n    constructor(\n        ILendingPoolAddressesProvider _addressProvider, \n        IUniswapV2Router02 _ubeswapV2Router\n    ) FlashLoanReceiverBase(_addressProvider) public {\n        // instantiate ubeswap router to handle exchange\n        ubeswapV2Router = IUniswapV2Router02(address(_ubeswapV2Router));\n    }\n\n    /**\n        This function is called after your contract has received the flash loaned amount\n     */\n    function executeOperation(\n        address[] calldata assets,\n        uint256[] calldata amounts,\n        uint256[] calldata premiums,\n        address /* initiator */,\n        bytes calldata params\n    )\n        external\n        override\n        returns (bool)\n    {\n        // collateral  the address of the token that we will be compensated in\n        // userToLiquidate - id of the user to liquidate\n        (address collateral, address userToLiquidate) = abi.decode(params, (address, address));\n\n        // liquidate unhealthy loan\n        uint256 loanAmount = amounts[0];\n        address loanAsset = assets[0];\n        uint256 flashloanFee = premiums[0];\n        uint256 flashLoanRepayment = loanAmount.add(flashloanFee);\n\n        liquidateLoan(collateral, loanAsset, userToLiquidate, loanAmount, false);\n\n        // swap collateral from collateral back to loan asset from flashloan to pay it off\n        // require at least the flash loan repayment amount out as a safety\n        swapCollateral(collateral, loanAsset, flashLoanRepayment);\n\n        uint256 balance = IERC20(loanAsset).balanceOf(address(this));\n        uint256 profit = balance.sub(loanAmount.add(flashloanFee));\n\n        // Pay to owner the profits\n        require(profit > 0 , \"No profit\");\n        IERC20(loanAsset).transfer(owner(), profit);\n\n        // Approve the LendingPool contract to *pull* the owed amount + premiums\n        IERC20(loanAsset).approve(address(LENDING_POOL), flashLoanRepayment);\n\n        return true;\n    }\n\n    function liquidateLoan(address _collateral, address _liquidate_asset, address _userToLiquidate, uint256 _amount, bool _receiveaToken) private {\n        require(IERC20(_liquidate_asset).approve(address(LENDING_POOL), _amount), \"Liquidate loan approval error\");\n        LENDING_POOL.liquidationCall(_collateral,_liquidate_asset, _userToLiquidate, _amount, _receiveaToken);\n    }\n\n    // assumes the balance of the token is on the contract\n    function swapCollateral(address asset_from, address asset_to, uint amountOutMin) private {\n        IERC20 asset_fromToken = IERC20(asset_from);\n        uint256 amountToTrade;\n        uint deadline;\n\n        // Set a small time limit\n        deadline = block.timestamp + 10;\n        amountToTrade = asset_fromToken.balanceOf(address(this));\n\n        // grant ubeswap access to your token\n        require(asset_fromToken.approve(address(ubeswapV2Router), amountToTrade), \"Ubeswap approval error\");\n\n        // use direct swap path for simplicity\n        address[] memory swapPath = new address[](2);\n        swapPath[0] = asset_from;\n        swapPath[1] = asset_to;\n        \n        // Trade 1: Execute swap from asset_from into designated ERC20 token on ubeswap\n        try ubeswapV2Router.swapExactTokensForTokens(\n                amountToTrade,\n                amountOutMin,\n                swapPath,\n                address(this),\n                deadline) { }\n        catch Error(string memory reason)\n        {\n            // for debugging, swallow the error\n            emit ErrorHandled(reason);\n        }\n        catch\n        {\n\n        }\n    }\n\n    /*\n    * This function is manually called to commence the flash loans sequence\n    * to make executing a liquidation  flexible calculations are done outside of the contract and sent via parameters here\n    * _assetToLiquidate - the token address of the asset that will be liquidated\n    * _flashAmt - flash loan amount (number of tokens) which is exactly the amount that will be liquidated\n    * _collateral - the token address of the collateral. This is the token that will be received after liquidating loans\n    * _userToLiquidate - user ID of the loan that will be liquidated\n    */\n    function executeFlashLoans(address _assetToLiquidate, uint256 _flashAmt, address _collateral, address _userToLiquidate) public onlyOwner {\n        address receiverAddress = address(this);\n\n        // the various assets to be flashed\n        address[] memory assets = new address[](1);\n        assets[0] = _assetToLiquidate;\n\n        // the amount to be flashed for each asset\n        uint256[] memory amounts = new uint256[](1);\n        amounts[0] = _flashAmt;\n\n        // 0 = no debt, 1 = stable, 2 = variable\n        uint256[] memory modes = new uint256[](1);\n        modes[0] = 0;\n\n        // mode is set to 0, no debt will be accrued\n        address onBehalfOf = address(this);\n\n        // passing these params to executeOperation so that they can be used to liquidate the loan and perform the swap\n        bytes memory params = abi.encode(_collateral, _userToLiquidate);\n        uint16 referralCode = 0;\n\n        LENDING_POOL.flashLoan(\n            receiverAddress,\n            assets,\n            amounts,\n            modes,\n            onBehalfOf,\n            params,\n            referralCode\n        );\n    }\n\n}\n",
  "sourcePath": "/Users/diwu/Projects/moola-liquidator-contract/contracts/LiquidateLoan.sol",
  "compiler": {
    "name": "solc",
    "version": "0.6.12+commit.27d51765.Linux.g++"
  },
  "schemaVersion": "3.4.3",
  "updatedAt": "2021-10-16T08:21:02.454Z",
  "devdoc": {
    "kind": "dev",
    "methods": {
      "isOwner()": {
        "details": "Returns true if the caller is the current owner."
      },
      "owner()": {
        "details": "Returns the address of the current owner."
      },
      "renounceOwnership()": {
        "details": "Leaves the contract without owner. It will not be possible to call `onlyOwner` functions anymore. Can only be called by the current owner. > Note: Renouncing ownership will leave the contract without an owner, thereby removing any functionality that is only available to the owner."
      },
      "transferOwnership(address)": {
        "details": "Transfers ownership of the contract to a new account (`newOwner`). Can only be called by the current owner."
      }
    },
    "version": 1
  },
  "userdoc": {
    "kind": "user",
    "methods": {
      "executeOperation(address[],uint256[],uint256[],address,bytes)": {
        "notice": "This function is called after your contract has received the flash loaned amount"
      }
    },
    "version": 1
  }
}