{
  "contractName": "LiquidateLoanV2",
  "abi": [
    {
      "inputs": [
        {
          "internalType": "contract ILendingPoolAddressesProvider",
          "name": "_addressProvider",
          "type": "address"
        },
        {
          "internalType": "contract ISwappaRouterV1",
          "name": "_swappa",
          "type": "address"
        }
      ],
      "stateMutability": "nonpayable",
      "type": "constructor"
    },
    {
      "anonymous": false,
      "inputs": [
        {
          "indexed": true,
          "internalType": "address",
          "name": "previousOwner",
          "type": "address"
        },
        {
          "indexed": true,
          "internalType": "address",
          "name": "newOwner",
          "type": "address"
        }
      ],
      "name": "OwnershipTransferred",
      "type": "event"
    },
    {
      "anonymous": false,
      "inputs": [
        {
          "indexed": false,
          "internalType": "address",
          "name": "",
          "type": "address"
        },
        {
          "indexed": false,
          "internalType": "uint256",
          "name": "",
          "type": "uint256"
        }
      ],
      "name": "Received",
      "type": "event"
    },
    {
      "inputs": [],
      "name": "ADDRESSES_PROVIDER",
      "outputs": [
        {
          "internalType": "contract ILendingPoolAddressesProvider",
          "name": "",
          "type": "address"
        }
      ],
      "stateMutability": "view",
      "type": "function"
    },
    {
      "inputs": [],
      "name": "LENDING_POOL",
      "outputs": [
        {
          "internalType": "contract ILendingPool",
          "name": "",
          "type": "address"
        }
      ],
      "stateMutability": "view",
      "type": "function"
    },
    {
      "inputs": [],
      "name": "isOwner",
      "outputs": [
        {
          "internalType": "bool",
          "name": "",
          "type": "bool"
        }
      ],
      "stateMutability": "view",
      "type": "function"
    },
    {
      "inputs": [],
      "name": "owner",
      "outputs": [
        {
          "internalType": "address",
          "name": "",
          "type": "address"
        }
      ],
      "stateMutability": "view",
      "type": "function"
    },
    {
      "inputs": [],
      "name": "renounceOwnership",
      "outputs": [],
      "stateMutability": "nonpayable",
      "type": "function"
    },
    {
      "inputs": [],
      "name": "swappa",
      "outputs": [
        {
          "internalType": "contract ISwappaRouterV1",
          "name": "",
          "type": "address"
        }
      ],
      "stateMutability": "view",
      "type": "function"
    },
    {
      "inputs": [
        {
          "internalType": "address",
          "name": "newOwner",
          "type": "address"
        }
      ],
      "name": "transferOwnership",
      "outputs": [],
      "stateMutability": "nonpayable",
      "type": "function"
    },
    {
      "stateMutability": "payable",
      "type": "receive"
    },
    {
      "inputs": [
        {
          "internalType": "address",
          "name": "_assetToLiquidate",
          "type": "address"
        },
        {
          "internalType": "uint256",
          "name": "_flashAmt",
          "type": "uint256"
        },
        {
          "internalType": "address",
          "name": "_collateral",
          "type": "address"
        },
        {
          "internalType": "address",
          "name": "_userToLiquidate",
          "type": "address"
        },
        {
          "internalType": "address[]",
          "name": "_swappaPath",
          "type": "address[]"
        },
        {
          "internalType": "address[]",
          "name": "_swappaPairs",
          "type": "address[]"
        },
        {
          "internalType": "bytes[]",
          "name": "_swappaExtras",
          "type": "bytes[]"
        }
      ],
      "name": "flashLiquidateWithSwappa",
      "outputs": [],
      "stateMutability": "nonpayable",
      "type": "function"
    },
    {
      "inputs": [
        {
          "internalType": "address[]",
          "name": "assets",
          "type": "address[]"
        },
        {
          "internalType": "uint256[]",
          "name": "amounts",
          "type": "uint256[]"
        },
        {
          "internalType": "uint256[]",
          "name": "premiums",
          "type": "uint256[]"
        },
        {
          "internalType": "address",
          "name": "",
          "type": "address"
        },
        {
          "internalType": "bytes",
          "name": "params",
          "type": "bytes"
        }
      ],
      "name": "executeOperation",
      "outputs": [
        {
          "internalType": "bool",
          "name": "",
          "type": "bool"
        }
      ],
      "stateMutability": "nonpayable",
      "type": "function"
    }
  ],
  "bytecode": "0x60e06040523480156200001157600080fd5b5060405162001be638038062001be683398101604081905262000034916200015f565b81806001600160a01b03166080816001600160a01b031660601b81525050806001600160a01b0316630261bf8b6040518163ffffffff1660e01b815260040160206040518083038186803b1580156200008c57600080fd5b505afa158015620000a1573d6000803e3d6000fd5b505050506040513d601f19601f82011682018060405250810190620000c7919062000139565b60601b6001600160601b03191660a0525060008054336001600160a01b0319909116178082556040516001600160a01b0390911691907f8be0079c531659141344cd1fd0a4f28419497f9722a3daafe3b4186f6b6457e0908290a360601b6001600160601b03191660c05250620001b6565b6000602082840312156200014b578081fd5b815162000158816200019d565b9392505050565b6000806040838503121562000172578081fd5b82516200017f816200019d565b602084015190925062000192816200019d565b809150509250929050565b6001600160a01b0381168114620001b357600080fd5b50565b60805160601c60a05160601c60c05160601c6119dc6200020a600039806101f852806108f5528061093152508061047852806104b55280610699528061075c52806107975250806101d452506119dc6000f3fe60806040526004361061008a5760003560e01c80638f32d59b116100595780638f32d59b1461013b578063920f5c841461015d578063b4dcfc771461017d578063f2fde38b14610192578063f79b8ec2146101b2576100ca565b80630542975c146100cf578063056bc3b4146100fa578063715018a61461010f5780638da5cb5b14610126576100ca565b366100ca577f88a5966d370b9919b20f3e2c13ff65706f196a4e32cc2c12bf57088f8852587433346040516100c0929190611423565b60405180910390a1005b600080fd5b3480156100db57600080fd5b506100e46101d2565b6040516100f1919061140f565b60405180910390f35b34801561010657600080fd5b506100e46101f6565b34801561011b57600080fd5b5061012461021a565b005b34801561013257600080fd5b506100e4610291565b34801561014757600080fd5b506101506102a0565b6040516100f1919061168c565b34801561016957600080fd5b506101506101783660046111ac565b6102b1565b34801561018957600080fd5b506100e46104b3565b34801561019e57600080fd5b506101246101ad366004610e85565b6104d7565b3480156101be57600080fd5b506101246101cd3660046110d3565b610507565b7f000000000000000000000000000000000000000000000000000000000000000081565b7f000000000000000000000000000000000000000000000000000000000000000081565b6102226102a0565b6102475760405162461bcd60e51b815260040161023e9061175c565b60405180910390fd5b600080546040516001600160a01b03909116907f8be0079c531659141344cd1fd0a4f28419497f9722a3daafe3b4186f6b6457e0908390a3600080546001600160a01b0319169055565b6000546001600160a01b031690565b6000546001600160a01b0316331490565b600080888860008181106102c157fe5b90506020020135905060008b8b60008181106102d957fe5b90506020020160208101906102ee9190610e85565b905060006103188989600081811061030257fe5b905060200201358461071f90919063ffffffff16565b9050600080606061032b888a018a610ea1565b5050925092509250600080825111801561036b5750836001600160a01b03168260008151811061035757fe5b60200260200101516001600160a01b031614155b905061037a8487858a8561074d565b508051156103c2576103c2848a8a8080601f01602080910402602001604051908101604052809392919081815260200183838082843760009201919091525061080c92505050565b600061044a85876001600160a01b03166370a08231306040518263ffffffff1660e01b81526004016103f4919061140f565b60206040518083038186803b15801561040c57600080fd5b505afa158015610420573d6000803e3d6000fd5b505050506040513d601f19601f8201168201806040525081019061044491906112c9565b906109d1565b9050610468610457610291565b6001600160a01b0388169083610a13565b5061049d6001600160a01b0386167f000000000000000000000000000000000000000000000000000000000000000086610a6e565b5060019f9e505050505050505050505050505050565b7f000000000000000000000000000000000000000000000000000000000000000081565b6104df6102a0565b6104fb5760405162461bcd60e51b815260040161023e9061175c565b61050481610b31565b50565b61050f6102a0565b61052b5760405162461bcd60e51b815260040161023e9061175c565b84158061056d57506001600160a01b038a168686600019810181811061054d57fe5b90506020020160208101906105629190610e85565b6001600160a01b0316145b6105895760405162461bcd60e51b815260040161023e90611791565b604080516001808252818301909252309160609190602080830190803683370190505090508b816000815181106105bc57fe5b6001600160a01b0392909216602092830291909101909101526040805160018082528183019092526060918160200160208202803683370190505090508b8160008151811061060757fe5b602090810291909101015260408051600180825281830190925260609181602001602082028036833701905050905060008160008151811061064557fe5b60200260200101818152505060608c8c8c8c8c8c8c8c60405160200161067298979695949392919061148a565b60408051601f198184030181529082905263ab9c4b5d60e01b825291506001600160a01b037f0000000000000000000000000000000000000000000000000000000000000000169063ab9c4b5d906106dc908890889088908890309089906107c590600401611565565b600060405180830381600087803b1580156106f657600080fd5b505af115801561070a573d6000803e3d6000fd5b50505050505050505050505050505050505050565b6000828201838110156107445760405162461bcd60e51b815260040161023e906116f0565b90505b92915050565b6107816001600160a01b0385167f000000000000000000000000000000000000000000000000000000000000000084610a6e565b60405162a718a960e01b81526001600160a01b037f0000000000000000000000000000000000000000000000000000000000000000169062a718a9906107d39088908890889088908890600401611456565b600060405180830381600087803b1580156107ed57600080fd5b505af1158015610801573d6000803e3d6000fd5b505050505050505050565b6060806060838060200190518101906108259190610f9a565b945094509450505060008360008151811061083c57fe5b602002602001015190506000816001600160a01b03166370a08231306040518263ffffffff1660e01b8152600401610874919061140f565b60206040518083038186803b15801561088c57600080fd5b505afa1580156108a0573d6000803e3d6000fd5b505050506040513d601f19601f820116820180604052508101906108c491906112c9565b9050600081116108e65760405162461bcd60e51b815260040161023e90611882565b61091a6001600160a01b0383167f000000000000000000000000000000000000000000000000000000000000000083610a6e565b6040516356fb7d0160e11b81526001600160a01b037f0000000000000000000000000000000000000000000000000000000000000000169063adf6fa02906109759088908890889087908e90309060014201906004016115e3565b602060405180830381600087803b15801561098f57600080fd5b505af11580156109a3573d6000803e3d6000fd5b505050506040513d601f19601f820116820180604052508101906109c791906112c9565b5050505050505050565b600061074483836040518060400160405280601e81526020017f536166654d6174683a207375627472616374696f6e206f766572666c6f770000815250610bb2565b610a698363a9059cbb60e01b8484604051602401610a32929190611423565b60408051601f198184030181529190526020810180516001600160e01b03166001600160e01b031990931692909217909152610bde565b505050565b801580610af65750604051636eb1769f60e11b81526001600160a01b0384169063dd62ed3e90610aa4903090869060040161143c565b60206040518083038186803b158015610abc57600080fd5b505afa158015610ad0573d6000803e3d6000fd5b505050506040513d601f19601f82011682018060405250810190610af491906112c9565b155b610b125760405162461bcd60e51b815260040161023e9061182c565b610a698363095ea7b360e01b8484604051602401610a32929190611423565b6001600160a01b038116610b575760405162461bcd60e51b815260040161023e906116aa565b600080546040516001600160a01b03808516939216917f8be0079c531659141344cd1fd0a4f28419497f9722a3daafe3b4186f6b6457e091a3600080546001600160a01b0319166001600160a01b0392909216919091179055565b60008184841115610bd65760405162461bcd60e51b815260040161023e9190611697565b505050900390565b610bf0826001600160a01b0316610cc9565b610c0c5760405162461bcd60e51b815260040161023e906118c3565b60006060836001600160a01b031683604051610c2891906113f3565b6000604051808303816000865af19150503d8060008114610c65576040519150601f19603f3d011682016040523d82523d6000602084013e610c6a565b606091505b509150915081610c8c5760405162461bcd60e51b815260040161023e90611727565b805115610cc35780806020019051810190610ca791906112a9565b610cc35760405162461bcd60e51b815260040161023e906117e2565b50505050565b6000813f7fc5d2460186f7233c927e7db2dcc703c0e500b653ca82273b7bfad8045d85a470818114801590610cfd57508115155b949350505050565b803561074781611991565b60008083601f840112610d21578182fd5b50813567ffffffffffffffff811115610d38578182fd5b6020830191508360208083028501011115610d5257600080fd5b9250929050565b600082601f830112610d69578081fd5b8135610d7c610d7782611921565b6118fa565b818152915060208083019084810181840286018201871015610d9d57600080fd5b60005b84811015610dc5578135610db381611991565b84529282019290820190600101610da0565b505050505092915050565b600082601f830112610de0578081fd5b8151610dee610d7782611921565b818152915060208083019084810181840286018201871015610e0f57600080fd5b60005b84811015610dc5578151610e2581611991565b84529282019290820190600101610e12565b600082601f830112610e47578081fd5b8135610e55610d7782611941565b9150808252836020828501011115610e6c57600080fd5b8060208401602084013760009082016020015292915050565b600060208284031215610e96578081fd5b813561074481611991565b600080600080600060a08688031215610eb8578081fd5b8535610ec381611991565b9450602086810135610ed481611991565b9450604087013567ffffffffffffffff80821115610ef0578384fd5b610efc8a838b01610d59565b95506060890135915080821115610f11578384fd5b610f1d8a838b01610d59565b94506080890135915080821115610f32578384fd5b508701601f81018913610f43578283fd5b8035610f51610d7782611921565b81815283810190838501865b84811015610f8657610f748e888435890101610e37565b84529286019290860190600101610f5d565b505080955050505050509295509295909350565b600080600080600060a08688031215610fb1578081fd5b8551610fbc81611991565b6020870151909550610fcd81611991565b604087015190945067ffffffffffffffff80821115610fea578283fd5b610ff689838a01610dd0565b9450606088015191508082111561100b578283fd5b61101789838a01610dd0565b9350608088015191508082111561102c578283fd5b508601601f8101881361103d578182fd5b805161104b610d7782611921565b818152602080820191908401855b848110156110c057815186018d603f820112611073578788fd5b6020810151611084610d7782611941565b8181528f604083850101111561109857898afd5b6110a9826020830160408601611965565b865250506020938401939190910190600101611059565b5050809450505050509295509295909350565b60008060008060008060008060008060e08b8d0312156110f1578485fd5b8a356110fc81611991565b995060208b0135985060408b013561111381611991565b97506111228c60608d01610d05565b965060808b013567ffffffffffffffff8082111561113e578687fd5b61114a8e838f01610d10565b909850965060a08d0135915080821115611162578586fd5b61116e8e838f01610d10565b909650945060c08d0135915080821115611186578384fd5b506111938d828e01610d10565b915080935050809150509295989b9194979a5092959850565b600080600080600080600080600060a08a8c0312156111c9578283fd5b893567ffffffffffffffff808211156111e0578485fd5b6111ec8d838e01610d10565b909b50995060208c0135915080821115611204578485fd5b6112108d838e01610d10565b909950975060408c0135915080821115611228578485fd5b6112348d838e01610d10565b909750955060608c0135915061124982611991565b90935060808b0135908082111561125e578384fd5b818c0191508c601f830112611271578384fd5b81358181111561127f578485fd5b8d6020828501011115611290578485fd5b6020830194508093505050509295985092959850929598565b6000602082840312156112ba578081fd5b81518015158114610744578182fd5b6000602082840312156112da578081fd5b5051919050565b6001600160a01b03169052565b60008284526020808501945082825b8581101561132b57813561131081611991565b6001600160a01b0316875295820195908201906001016112fd565b509495945050505050565b6000815180845260208085019450808401835b8381101561132b5781516001600160a01b031687529582019590820190600101611349565b6000815180845260208085019450808401835b8381101561132b57815187529582019590820190600101611381565b60008284528282602086013780602084860101526020601f19601f85011685010190509392505050565b600081518084526113df816020860160208601611965565b601f01601f19169290920160200192915050565b60008251611405818460208701611965565b9190910192915050565b6001600160a01b0391909116815260200190565b6001600160a01b03929092168252602082015260400190565b6001600160a01b0392831681529116602082015260400190565b6001600160a01b03958616815293851660208501529190931660408301526060820192909252901515608082015260a00190565b600060018060a01b03808b1683526020818b168185015260a060408501526114b660a085018a8c6112ee565b915083820360608501526114cb82888a6112ee565b848103608086015285815291508082018186028301820187855b8881101561155157858303601f190184528135368b9003601e1901811261150a578788fd5b8a01803567ffffffffffffffff811115611522578889fd5b8036038c1315611530578889fd5b61153d858289850161139d565b9587019594505050908401906001016114e5565b50909e9d5050505050505050505050505050565b600060018060a01b03808a16835260e0602084015261158760e084018a611336565b8381036040850152611599818a61136e565b905083810360608501526115ad818961136e565b9050818716608085015283810360a08501526115c981876113c7565b9250505061ffff831660c083015298975050505050505050565b600060e082526115f660e083018a611336565b602083820381850152611609828b611336565b848103604086015289518082529092508183019082810284018301838c01865b8381101561165757601f198784030185526116458383516113c7565b94860194925090850190600101611629565b5050809550505050505085606083015284608083015261167a60a08301856112e1565b8260c083015298975050505050505050565b901515815260200190565b60006020825261074460208301846113c7565b60208082526026908201527f4f776e61626c653a206e6577206f776e657220697320746865207a65726f206160408201526564647265737360d01b606082015260800190565b6020808252601b908201527f536166654d6174683a206164646974696f6e206f766572666c6f770000000000604082015260600190565b6020808252818101527f5361666545524332303a206c6f772d6c6576656c2063616c6c206661696c6564604082015260600190565b6020808252818101527f4f776e61626c653a2063616c6c6572206973206e6f7420746865206f776e6572604082015260600190565b60208082526031908201527f537761707061207061746820646f6573206e6f74206d617463682074686520616040820152707373657420746f206c697175696461746560781b606082015260800190565b6020808252602a908201527f5361666545524332303a204552433230206f7065726174696f6e20646964206e6040820152691bdd081cdd58d8d9595960b21b606082015260800190565b60208082526036908201527f5361666545524332303a20617070726f76652066726f6d206e6f6e2d7a65726f60408201527520746f206e6f6e2d7a65726f20616c6c6f77616e636560501b606082015260800190565b60208082526021908201527f7377617020636f6c6c61746572616c20616d6f756e74206973206d697373696e6040820152606760f81b606082015260800190565b6020808252601f908201527f5361666545524332303a2063616c6c20746f206e6f6e2d636f6e747261637400604082015260600190565b60405181810167ffffffffffffffff8111828210171561191957600080fd5b604052919050565b600067ffffffffffffffff821115611937578081fd5b5060209081020190565b600067ffffffffffffffff821115611957578081fd5b50601f01601f191660200190565b60005b83811015611980578181015183820152602001611968565b83811115610cc35750506000910152565b6001600160a01b038116811461050457600080fdfea26469706673582212209b915206fafce69615c7b287a36995da3c94aacc4dd0a51dd3eb048d201ea26964736f6c634300060c0033",
  "immutableReferences": {
    "26": [
      {
        "length": 32,
        "start": 468
      }
    ],
    "29": [
      {
        "length": 32,
        "start": 1144
      },
      {
        "length": 32,
        "start": 1205
      },
      {
        "length": 32,
        "start": 1689
      },
      {
        "length": 32,
        "start": 1884
      },
      {
        "length": 32,
        "start": 1943
      }
    ],
    "1203": [
      {
        "length": 32,
        "start": 504
      },
      {
        "length": 32,
        "start": 2293
      },
      {
        "length": 32,
        "start": 2353
      }
    ]
  },
  "source": "// SPDX-License-Identifier: MIT\npragma solidity >=0.6.8;\npragma experimental ABIEncoderV2;\n\nimport { ISwappaRouterV1 } from \"./ISwappaRouterV1.sol\";\nimport { Ownable } from \"./Ownable.sol\";\nimport { ILendingPool, ILendingPoolAddressesProvider, IERC20 } from \"./Interfaces.sol\";\nimport { SafeERC20, SafeMath } from \"./Libraries.sol\";\nimport { FlashLoanReceiverBase } from \"./FlashLoanReceiverBase.sol\";\n\ncontract LiquidateLoanV2 is FlashLoanReceiverBase, Ownable {\n\n    using SafeERC20 for IERC20;\n    using SafeMath for uint256;\n\n    ISwappaRouterV1 public immutable swappa;\n\n    constructor(\n        ILendingPoolAddressesProvider _addressProvider, // 0xD1088091A174d33412a968Fa34Cb67131188B332\n        ISwappaRouterV1 _swappa // 0xF35ed7156BABF2541E032B3bB8625210316e2832\n    ) FlashLoanReceiverBase(_addressProvider) public {\n        swappa = ISwappaRouterV1(_swappa);\n    }\n\n    /*\n    * This function is manually called to commence the flash loans sequence\n    * to make executing a liquidation  flexible calculations are done outside of the contract and sent via parameters here\n    * _assetToLiquidate - the token address of the asset that will be liquidated\n    * _flashAmt - flash loan amount (number of tokens) which is exactly the amount that will be liquidated\n    * _collateral - the token address of the collateral. This is the token that will be received after liquidating loans\n    * _userToLiquidate - user ID of the loan that will be liquidated\n    * _swappaPath / _swappaPairs / _swappaExtras - the path that swappa will use to swap tokens back to original tokens\n    */\n    function flashLiquidateWithSwappa(\n        address _assetToLiquidate,\n        uint256 _flashAmt,\n        address _collateral,\n        address _userToLiquidate,\n        address[] calldata _swappaPath,\n        address[] calldata _swappaPairs,\n        bytes[] calldata _swappaExtras\n    ) external onlyOwner {\n        // sanity check the swappa path\n        require(\n            _swappaPath.length == 0 ||\n            _swappaPath[_swappaPath.length - 1] == _assetToLiquidate,\n            \"Swappa path does not match the asset to liquidate\");\n\n        address receiverAddress = address(this);\n\n        // the various assets to be flashed\n        address[] memory assets = new address[](1);\n        assets[0] = _assetToLiquidate;\n\n        // the amount to be flashed for each asset\n        uint256[] memory amounts = new uint256[](1);\n        amounts[0] = _flashAmt;\n\n        // 0 = no debt, 1 = stable, 2 = variable\n        uint256[] memory modes = new uint256[](1);\n        modes[0] = 0;\n\n        // passing these params to executeOperation so that they can be used to liquidate the loan and perform the swap\n        bytes memory params = abi.encode(\n            _collateral,\n            _userToLiquidate,\n            _swappaPath,\n            _swappaPairs,\n            _swappaExtras);\n\n        LENDING_POOL.flashLoan(\n            receiverAddress,\n            assets,\n            amounts,\n            modes,\n            // mode is set to 0, no debt will be accrued\n            address(this),\n            params,\n            1989 // my referral code\n        );\n    }\n\n    // LendingPool calls into this in the middle of flashloan\n    function executeOperation(\n        address[] calldata assets,\n        uint256[] calldata amounts,\n        uint256[] calldata premiums,\n        address /* initiator */,\n        bytes calldata params\n    )\n        external\n        override\n        returns (bool)\n    {\n        // liquidate unhealthy loan\n        uint256 loanAmount = amounts[0];\n        address loanAsset = assets[0];\n        uint256 flashLoanRepayment = loanAmount.add(premiums[0]);\n\n        (\n            address collateral,\n            address userToLiquidate,\n            address[] memory swappaPath,\n            , // address[] swappaPairs\n                // bytes[] swappaExtras\n        ) = abi.decode(params, (address, address, address[], address[], bytes[]));\n\n\n        {\n            // only receive Atoken if we have been provided a swap path from the Atoken to the debt\n            // if no swap path is received, then it means collateral == debt, and we don't want Atoken\n            bool receiveAToken = swappaPath.length > 0 && swappaPath[0] != collateral;\n            liquidateLoan(collateral, loanAsset, userToLiquidate, loanAmount, receiveAToken);\n        }\n\n        // swap collateral to loan asset from flashloan to pay it off, we may have received Atoken\n        if (swappaPath.length > 0) {\n            // require at least the flash loan repayment amount out as a safety\n            swapCollateral(flashLoanRepayment, params);\n        } else {\n            // the only type of liquidation where we do not need to involve swappa is:\n            // - collateral == loan asset\n            // - receiveAToken == false\n        }\n\n        // Pay to owner the profits\n        {\n            uint256 profit = IERC20(loanAsset).balanceOf(address(this)).sub(flashLoanRepayment);\n            IERC20(loanAsset).safeTransfer(owner(), profit);\n        }\n\n        // Approve the LendingPool contract to *pull* the owed amount + premiums\n        IERC20(loanAsset).safeApprove(address(LENDING_POOL), flashLoanRepayment);\n        return true;\n    }\n\n    function liquidateLoan(address _collateral, address _loanAsset, address _user, uint256 _amount, bool _receiveAToken) private {\n        // approve the flash loaned loan asset to the lending pool for repayment\n        IERC20(_loanAsset).safeApprove(address(LENDING_POOL), _amount);\n        LENDING_POOL.liquidationCall(_collateral, _loanAsset, _user, _amount, _receiveAToken);\n    }\n\n    // assumes the balance of the token is on the contract\n    function swapCollateral(uint amountOutMin, bytes memory params) private {\n        (\n            , // address collateral\n            , // address userToLiquidate\n            address[] memory swappaPath,\n            address[] memory swappaPairs,\n            bytes[] memory swappaExtras\n        ) = abi.decode(params, (address, address, address[], address[], bytes[]));\n        // read the balance from the first token in the swap path, which may be AToken\n        IERC20 collateralOrAToken = IERC20(swappaPath[0]);\n        uint256 amountToTrade = collateralOrAToken.balanceOf(address(this));\n        require(amountToTrade > 0, \"swap collateral amount is missing\");\n\n        // grant swap access to your token, swap ALL of the collateral over to the debt asset\n        collateralOrAToken.safeApprove(address(swappa), amountToTrade);\n\n        swappa.swapExactInputForOutputWithPrecheck(\n            swappaPath,\n            swappaPairs,\n            swappaExtras,\n            amountToTrade,\n            amountOutMin,\n            address(this),\n            block.timestamp + 1\n        );\n    }\n}\n",
  "sourcePath": "/Users/diwu/Projects/moola-liquidator-contract/contracts/LiquidateLoanV2.sol",
  "compiler": {
    "name": "solc",
    "version": "0.6.12+commit.27d51765.Emscripten.clang"
  },
  "schemaVersion": "3.4.4",
  "updatedAt": "2022-01-24T07:28:27.402Z",
  "devdoc": {
    "kind": "dev",
    "methods": {
      "isOwner()": {
        "details": "Returns true if the caller is the current owner."
      },
      "owner()": {
        "details": "Returns the address of the current owner."
      },
      "renounceOwnership()": {
        "details": "Leaves the contract without owner. It will not be possible to call `onlyOwner` functions anymore. Can only be called by the current owner. > Note: Renouncing ownership will leave the contract without an owner, thereby removing any functionality that is only available to the owner."
      },
      "transferOwnership(address)": {
        "details": "Transfers ownership of the contract to a new account (`newOwner`). Can only be called by the current owner."
      }
    },
    "version": 1
  },
  "userdoc": {
    "kind": "user",
    "methods": {},
    "version": 1
  }
}