{
  "contractName": "LiquidateLoanV2",
  "abi": [
    {
      "inputs": [
        {
          "internalType": "contract ILendingPoolAddressesProvider",
          "name": "_addressProvider",
          "type": "address"
        },
        {
          "internalType": "contract ISwappaRouterV1",
          "name": "_swappa",
          "type": "address"
        }
      ],
      "stateMutability": "nonpayable",
      "type": "constructor"
    },
    {
      "anonymous": false,
      "inputs": [
        {
          "indexed": true,
          "internalType": "address",
          "name": "previousOwner",
          "type": "address"
        },
        {
          "indexed": true,
          "internalType": "address",
          "name": "newOwner",
          "type": "address"
        }
      ],
      "name": "OwnershipTransferred",
      "type": "event"
    },
    {
      "anonymous": false,
      "inputs": [
        {
          "indexed": false,
          "internalType": "address",
          "name": "",
          "type": "address"
        },
        {
          "indexed": false,
          "internalType": "uint256",
          "name": "",
          "type": "uint256"
        }
      ],
      "name": "Received",
      "type": "event"
    },
    {
      "inputs": [],
      "name": "ADDRESSES_PROVIDER",
      "outputs": [
        {
          "internalType": "contract ILendingPoolAddressesProvider",
          "name": "",
          "type": "address"
        }
      ],
      "stateMutability": "view",
      "type": "function"
    },
    {
      "inputs": [],
      "name": "LENDING_POOL",
      "outputs": [
        {
          "internalType": "contract ILendingPool",
          "name": "",
          "type": "address"
        }
      ],
      "stateMutability": "view",
      "type": "function"
    },
    {
      "inputs": [],
      "name": "isOwner",
      "outputs": [
        {
          "internalType": "bool",
          "name": "",
          "type": "bool"
        }
      ],
      "stateMutability": "view",
      "type": "function"
    },
    {
      "inputs": [],
      "name": "owner",
      "outputs": [
        {
          "internalType": "address",
          "name": "",
          "type": "address"
        }
      ],
      "stateMutability": "view",
      "type": "function"
    },
    {
      "inputs": [],
      "name": "renounceOwnership",
      "outputs": [],
      "stateMutability": "nonpayable",
      "type": "function"
    },
    {
      "inputs": [],
      "name": "swappa",
      "outputs": [
        {
          "internalType": "contract ISwappaRouterV1",
          "name": "",
          "type": "address"
        }
      ],
      "stateMutability": "view",
      "type": "function"
    },
    {
      "inputs": [
        {
          "internalType": "address",
          "name": "newOwner",
          "type": "address"
        }
      ],
      "name": "transferOwnership",
      "outputs": [],
      "stateMutability": "nonpayable",
      "type": "function"
    },
    {
      "stateMutability": "payable",
      "type": "receive"
    },
    {
      "inputs": [
        {
          "internalType": "address",
          "name": "_assetToLiquidate",
          "type": "address"
        },
        {
          "internalType": "uint256",
          "name": "_flashAmt",
          "type": "uint256"
        },
        {
          "internalType": "address",
          "name": "_collateral",
          "type": "address"
        },
        {
          "internalType": "address",
          "name": "_userToLiquidate",
          "type": "address"
        },
        {
          "internalType": "address[]",
          "name": "_swappaPath",
          "type": "address[]"
        },
        {
          "internalType": "address[]",
          "name": "_swappaPairs",
          "type": "address[]"
        },
        {
          "internalType": "bytes[]",
          "name": "_swappaExtras",
          "type": "bytes[]"
        }
      ],
      "name": "liquidate",
      "outputs": [],
      "stateMutability": "nonpayable",
      "type": "function"
    },
    {
      "inputs": [
        {
          "internalType": "address[]",
          "name": "assets",
          "type": "address[]"
        },
        {
          "internalType": "uint256[]",
          "name": "amounts",
          "type": "uint256[]"
        },
        {
          "internalType": "uint256[]",
          "name": "premiums",
          "type": "uint256[]"
        },
        {
          "internalType": "address",
          "name": "",
          "type": "address"
        },
        {
          "internalType": "bytes",
          "name": "params",
          "type": "bytes"
        }
      ],
      "name": "executeOperation",
      "outputs": [
        {
          "internalType": "bool",
          "name": "",
          "type": "bool"
        }
      ],
      "stateMutability": "nonpayable",
      "type": "function"
    }
  ],
  "bytecode": "0x60e060405234801561001057600080fd5b50604051610d45380380610d4583398101604081905261002f91610152565b81806001600160a01b03166080816001600160a01b031660601b81525050806001600160a01b0316630261bf8b6040518163ffffffff1660e01b815260040160206040518083038186803b15801561008657600080fd5b505afa15801561009a573d6000803e3d6000fd5b505050506040513d601f19601f820116820180604052508101906100be919061012f565b60601b6001600160601b03191660a0525060008054336001600160a01b0319909116178082556040516001600160a01b0390911691907f8be0079c531659141344cd1fd0a4f28419497f9722a3daafe3b4186f6b6457e0908290a360601b6001600160601b03191660c052506101a3565b600060208284031215610140578081fd5b815161014b8161018b565b9392505050565b60008060408385031215610164578081fd5b825161016f8161018b565b60208401519092506101808161018b565b809150509250929050565b6001600160a01b03811681146101a057600080fd5b50565b60805160601c60a05160601c60c05160601c610b686101dd600039806101f85250806102c2528061041c5250806101d45250610b686000f3fe60806040526004361061008a5760003560e01c80638f32d59b116100595780638f32d59b1461013b578063920f5c841461015d578063b4dcfc771461017d578063dc6aff6214610192578063f2fde38b146101b2576100ca565b80630542975c146100cf578063056bc3b4146100fa578063715018a61461010f5780638da5cb5b14610126576100ca565b366100ca577f88a5966d370b9919b20f3e2c13ff65706f196a4e32cc2c12bf57088f8852587433346040516100c09291906108f8565b60405180910390a1005b600080fd5b3480156100db57600080fd5b506100e46101d2565b6040516100f191906108e4565b60405180910390f35b34801561010657600080fd5b506100e46101f6565b34801561011b57600080fd5b5061012461021a565b005b34801561013257600080fd5b506100e4610291565b34801561014757600080fd5b506101506102a0565b6040516100f19190610aa3565b34801561016957600080fd5b506101506101783660046106f1565b6102b1565b34801561018957600080fd5b506100e46102c0565b34801561019e57600080fd5b506101246101ad36600461061a565b6102e4565b3480156101be57600080fd5b506101246101cd3660046105f8565b6104a1565b7f000000000000000000000000000000000000000000000000000000000000000081565b7f000000000000000000000000000000000000000000000000000000000000000081565b6102226102a0565b6102475760405162461bcd60e51b815260040161023e90610af4565b60405180910390fd5b600080546040516001600160a01b03909116907f8be0079c531659141344cd1fd0a4f28419497f9722a3daafe3b4186f6b6457e0908390a3600080546001600160a01b0319169055565b6000546001600160a01b031690565b6000546001600160a01b0316331490565b60019998505050505050505050565b7f000000000000000000000000000000000000000000000000000000000000000081565b6102ec6102a0565b6103085760405162461bcd60e51b815260040161023e90610af4565b604080516001808252818301909252309160609190602080830190803683370190505090508b8160008151811061033b57fe5b6001600160a01b0392909216602092830291909101909101526040805160018082528183019092526060918160200160208202803683370190505090508b8160008151811061038657fe5b60209081029190910101526040805160018082528183019092526060918160200160208202803683370190505090506000816000815181106103c457fe5b60200260200101818152505060608c8c8c8c8c8c8c8c6040516020016103f1989796959493929190610911565b60408051601f198184030181529082905263ab9c4b5d60e01b825291506107c5906001600160a01b037f0000000000000000000000000000000000000000000000000000000000000000169063ab9c4b5d9061045d90899089908990899030908a908a906004016109ec565b600060405180830381600087803b15801561047757600080fd5b505af115801561048b573d6000803e3d6000fd5b5050505050505050505050505050505050505050565b6104a96102a0565b6104c55760405162461bcd60e51b815260040161023e90610af4565b6104ce816104d1565b50565b6001600160a01b0381166104f75760405162461bcd60e51b815260040161023e90610aae565b600080546040516001600160a01b03808516939216917f8be0079c531659141344cd1fd0a4f28419497f9722a3daafe3b4186f6b6457e091a3600080546001600160a01b0319166001600160a01b0392909216919091179055565b80356001600160a01b038116811461056957600080fd5b92915050565b60008083601f840112610580578182fd5b50813567ffffffffffffffff811115610597578182fd5b60208301915083602080830285010111156105b157600080fd5b9250929050565b60008083601f8401126105c9578182fd5b50813567ffffffffffffffff8111156105e0578182fd5b6020830191508360208285010111156105b157600080fd5b600060208284031215610609578081fd5b6106138383610552565b9392505050565b60008060008060008060008060008060e08b8d031215610638578586fd5b6106428c8c610552565b995060208b013598506106588c60408d01610552565b97506106678c60608d01610552565b965060808b013567ffffffffffffffff80821115610683578788fd5b61068f8e838f0161056f565b909850965060a08d01359150808211156106a7578586fd5b6106b38e838f0161056f565b909650945060c08d01359150808211156106cb578384fd5b506106d88d828e0161056f565b915080935050809150509295989b9194979a5092959850565b600080600080600080600080600060a08a8c03121561070e578485fd5b893567ffffffffffffffff80821115610725578687fd5b6107318d838e0161056f565b909b50995060208c0135915080821115610749578687fd5b6107558d838e0161056f565b909950975060408c013591508082111561076d578687fd5b6107798d838e0161056f565b909750955060608c013591506001600160a01b0382168214610799578485fd5b90935060808b013590808211156107ae578384fd5b506107bb8c828d016105b8565b915080935050809150509295985092959850929598565b6001600160a01b0316815260200190565b6001600160a01b03169052565b60008284526020808501945082825b8581101561082d578183016001600160a01b0361081c8285610552565b1688529683019691506001016107ff565b509495945050505050565b6000815180845260208085019450808401835b8381101561082d5781518752958201959082019060010161084b565b60008284528282602086013780602084860101526020601f19601f85011685010190509392505050565b60008151808452815b818110156108b65760208185018101518683018201520161089a565b818111156108c75782602083870101525b50601f01601f19169290920160200192915050565b61ffff169052565b6001600160a01b0391909116815260200190565b6001600160a01b03929092168252602082015260400190565b600060018060a01b03808b1683526020818b168185015260a0604085015261093d60a085018a8c6107f0565b9150838203606085015261095282888a6107f0565b848103608086015285815291508082018186028301820187855b888110156109d857858303601f190184528135368b9003601e19018112610991578788fd5b8a01803567ffffffffffffffff8111156109a9578889fd5b8036038c13156109b7578889fd5b6109c48582898501610867565b95870195945050509084019060010161096c565b50909e9d5050505050505050505050505050565b600060e0820160018060a01b038a168352602060e081850152818a51610a128185610b29565b9150828c019350845b81811015610a3c57610a2e8386516107d2565b948401949250600101610a1b565b50508481036040860152610a50818b610838565b925050508281036060840152610a668188610838565b9050610a7560808401876107e3565b82810360a0840152610a878186610891565b915050610a9760c08301846108dc565b98975050505050505050565b901515815260200190565b60208082526026908201527f4f776e61626c653a206e6577206f776e657220697320746865207a65726f206160408201526564647265737360d01b606082015260800190565b6020808252818101527f4f776e61626c653a2063616c6c6572206973206e6f7420746865206f776e6572604082015260600190565b9081526020019056fea2646970667358221220360c865152f718e332fce18e59f987fd81b5ef6b334d19020a3c3b10934a009a64736f6c634300060c0033",
  "immutableReferences": {
    "26": [
      {
        "length": 32,
        "start": 468
      }
    ],
    "29": [
      {
        "length": 32,
        "start": 706
      },
      {
        "length": 32,
        "start": 1052
      }
    ],
    "1203": [
      {
        "length": 32,
        "start": 504
      }
    ]
  },
  "source": "// SPDX-License-Identifier: MIT\npragma solidity >=0.6.8;\npragma experimental ABIEncoderV2;\n\nimport { ISwappaRouterV1 } from \"./ISwappaRouterV1.sol\";\nimport { Ownable } from \"./Ownable.sol\";\nimport { ILendingPool, ILendingPoolAddressesProvider, IERC20 } from \"./Interfaces.sol\";\nimport { SafeERC20, SafeMath } from \"./Libraries.sol\";\nimport { FlashLoanReceiverBase } from \"./FlashLoanReceiverBase.sol\";\n\ncontract LiquidateLoanV2 is FlashLoanReceiverBase, Ownable {\n\n    using SafeERC20 for IERC20;\n    using SafeMath for uint256;\n\n    ISwappaRouterV1 public immutable swappa;\n\n    constructor(\n        ILendingPoolAddressesProvider _addressProvider,\n        ISwappaRouterV1 _swappa\n    ) FlashLoanReceiverBase(_addressProvider) public {\n        swappa = ISwappaRouterV1(_swappa);\n    }\n\n    /**\n    Given an asset to liquidate, and the collateral to collect on, and a swap path\n    compatible with the given swap router:\n    1. initiate a flash swap to receive flash amount of the asset to liquidate\n    2. inside flash swap, repay the lending pool, and receive the collateral as Atoken\n    3. unwrap Atoken to the first token in the swap path as needed\n    4. use the swap path to complete the flash swap\n    5. transfer the remainder to the owner\n     */\n    function liquidate(\n        address _assetToLiquidate,\n        uint256 _flashAmt,\n        address _collateral,\n        address _userToLiquidate,\n        address[] calldata _swappaPath,\n        address[] calldata _swappaPairs,\n        bytes[] calldata _swappaExtras\n    ) external onlyOwner {\n        address receiverAddress = address(this);\n\n        // the various assets to be flashed\n        address[] memory assets = new address[](1);\n        assets[0] = _assetToLiquidate;\n\n        // the amount to be flashed for each asset\n        uint256[] memory amounts = new uint256[](1);\n        amounts[0] = _flashAmt;\n\n        // 0 = no debt, 1 = stable, 2 = variable\n        uint256[] memory modes = new uint256[](1);\n        modes[0] = 0;\n\n        // passing these params to executeOperation so that they can be used to liquidate the loan and perform the swap\n        bytes memory params = abi.encode(\n            _collateral,\n            _userToLiquidate,\n            _swappaPath,\n            _swappaPairs,\n            _swappaExtras);\n\n        // my referral code\n        uint16 referralCode = 1989;\n\n        LENDING_POOL.flashLoan(\n            receiverAddress,\n            assets,\n            amounts,\n            modes,\n            // mode is set to 0, no debt will be accrued\n            address(this),\n            params,\n            referralCode\n        );\n    }\n\n    function executeOperation(\n        address[] calldata assets,\n        uint256[] calldata amounts,\n        uint256[] calldata premiums,\n        address /* initiator */,\n        bytes calldata params\n    )\n        external\n        override\n        returns (bool)\n    {\n        return true;\n    }\n}\n",
  "sourcePath": "/Users/diwu/Projects/moola-liquidator-contract/contracts/LiquidateLoanV2.sol",
  "compiler": {
    "name": "solc",
    "version": "0.6.12+commit.27d51765.Emscripten.clang"
  },
  "schemaVersion": "3.4.4",
  "updatedAt": "2022-01-24T06:31:25.698Z",
  "devdoc": {
    "kind": "dev",
    "methods": {
      "isOwner()": {
        "details": "Returns true if the caller is the current owner."
      },
      "owner()": {
        "details": "Returns the address of the current owner."
      },
      "renounceOwnership()": {
        "details": "Leaves the contract without owner. It will not be possible to call `onlyOwner` functions anymore. Can only be called by the current owner. > Note: Renouncing ownership will leave the contract without an owner, thereby removing any functionality that is only available to the owner."
      },
      "transferOwnership(address)": {
        "details": "Transfers ownership of the contract to a new account (`newOwner`). Can only be called by the current owner."
      }
    },
    "version": 1
  },
  "userdoc": {
    "kind": "user",
    "methods": {
      "liquidate(address,uint256,address,address,address[],address[],bytes[])": {
        "notice": "Given an asset to liquidate, and the collateral to collect on, and a swap path compatible with the given swap router: 1. initiate a flash swap to receive flash amount of the asset to liquidate 2. inside flash swap, repay the lending pool, and receive the collateral as Atoken 3. unwrap Atoken to the first token in the swap path as needed 4. use the swap path to complete the flash swap 5. transfer the remainder to the owner"
      }
    },
    "version": 1
  }
}