{
  "contractName": "LiquidateLoanV2",
  "abi": [
    {
      "inputs": [
        {
          "internalType": "contract ILendingPoolAddressesProvider",
          "name": "_addressProvider",
          "type": "address"
        },
        {
          "internalType": "contract ISwappaRouterV1",
          "name": "_swappa",
          "type": "address"
        }
      ],
      "stateMutability": "nonpayable",
      "type": "constructor"
    },
    {
      "anonymous": false,
      "inputs": [
        {
          "indexed": true,
          "internalType": "address",
          "name": "previousOwner",
          "type": "address"
        },
        {
          "indexed": true,
          "internalType": "address",
          "name": "newOwner",
          "type": "address"
        }
      ],
      "name": "OwnershipTransferred",
      "type": "event"
    },
    {
      "anonymous": false,
      "inputs": [
        {
          "indexed": false,
          "internalType": "address",
          "name": "",
          "type": "address"
        },
        {
          "indexed": false,
          "internalType": "uint256",
          "name": "",
          "type": "uint256"
        }
      ],
      "name": "Received",
      "type": "event"
    },
    {
      "inputs": [],
      "name": "ADDRESSES_PROVIDER",
      "outputs": [
        {
          "internalType": "contract ILendingPoolAddressesProvider",
          "name": "",
          "type": "address"
        }
      ],
      "stateMutability": "view",
      "type": "function"
    },
    {
      "inputs": [],
      "name": "LENDING_POOL",
      "outputs": [
        {
          "internalType": "contract ILendingPool",
          "name": "",
          "type": "address"
        }
      ],
      "stateMutability": "view",
      "type": "function"
    },
    {
      "inputs": [],
      "name": "isOwner",
      "outputs": [
        {
          "internalType": "bool",
          "name": "",
          "type": "bool"
        }
      ],
      "stateMutability": "view",
      "type": "function"
    },
    {
      "inputs": [],
      "name": "owner",
      "outputs": [
        {
          "internalType": "address",
          "name": "",
          "type": "address"
        }
      ],
      "stateMutability": "view",
      "type": "function"
    },
    {
      "inputs": [],
      "name": "renounceOwnership",
      "outputs": [],
      "stateMutability": "nonpayable",
      "type": "function"
    },
    {
      "inputs": [],
      "name": "swappa",
      "outputs": [
        {
          "internalType": "contract ISwappaRouterV1",
          "name": "",
          "type": "address"
        }
      ],
      "stateMutability": "view",
      "type": "function"
    },
    {
      "inputs": [
        {
          "internalType": "address",
          "name": "newOwner",
          "type": "address"
        }
      ],
      "name": "transferOwnership",
      "outputs": [],
      "stateMutability": "nonpayable",
      "type": "function"
    },
    {
      "stateMutability": "payable",
      "type": "receive"
    },
    {
      "inputs": [
        {
          "internalType": "address",
          "name": "_assetToLiquidate",
          "type": "address"
        },
        {
          "internalType": "uint256",
          "name": "_flashAmt",
          "type": "uint256"
        },
        {
          "internalType": "address",
          "name": "_collateral",
          "type": "address"
        },
        {
          "internalType": "address",
          "name": "_userToLiquidate",
          "type": "address"
        },
        {
          "internalType": "address[]",
          "name": "_swappaPath",
          "type": "address[]"
        },
        {
          "internalType": "address[]",
          "name": "_swappaPairs",
          "type": "address[]"
        },
        {
          "internalType": "bytes[]",
          "name": "_swappaExtras",
          "type": "bytes[]"
        }
      ],
      "name": "flashLiquidateWithSwappa",
      "outputs": [],
      "stateMutability": "nonpayable",
      "type": "function"
    },
    {
      "inputs": [
        {
          "internalType": "address[]",
          "name": "assets",
          "type": "address[]"
        },
        {
          "internalType": "uint256[]",
          "name": "amounts",
          "type": "uint256[]"
        },
        {
          "internalType": "uint256[]",
          "name": "premiums",
          "type": "uint256[]"
        },
        {
          "internalType": "address",
          "name": "",
          "type": "address"
        },
        {
          "internalType": "bytes",
          "name": "params",
          "type": "bytes"
        }
      ],
      "name": "executeOperation",
      "outputs": [
        {
          "internalType": "bool",
          "name": "",
          "type": "bool"
        }
      ],
      "stateMutability": "nonpayable",
      "type": "function"
    }
  ],
  "bytecode": "0x60e06040523480156200001157600080fd5b5060405162001ced38038062001ced83398101604081905262000034916200015f565b81806001600160a01b03166080816001600160a01b031660601b81525050806001600160a01b0316630261bf8b6040518163ffffffff1660e01b815260040160206040518083038186803b1580156200008c57600080fd5b505afa158015620000a1573d6000803e3d6000fd5b505050506040513d601f19601f82011682018060405250810190620000c7919062000139565b60601b6001600160601b03191660a0525060008054336001600160a01b0319909116178082556040516001600160a01b0390911691907f8be0079c531659141344cd1fd0a4f28419497f9722a3daafe3b4186f6b6457e0908290a360601b6001600160601b03191660c05250620001b6565b6000602082840312156200014b578081fd5b815162000158816200019d565b9392505050565b6000806040838503121562000172578081fd5b82516200017f816200019d565b602084015190925062000192816200019d565b809150509250929050565b6001600160a01b0381168114620001b357600080fd5b50565b60805160601c60a05160601c60c05160601c611ae36200020a600039806101f8528061094c52806109885250806104cf528061050c52806106f052806107b352806107ee5250806101d45250611ae36000f3fe60806040526004361061008a5760003560e01c80638f32d59b116100595780638f32d59b1461013b578063920f5c841461015d578063b4dcfc771461017d578063f2fde38b14610192578063f79b8ec2146101b2576100ca565b80630542975c146100cf578063056bc3b4146100fa578063715018a61461010f5780638da5cb5b14610126576100ca565b366100ca577f88a5966d370b9919b20f3e2c13ff65706f196a4e32cc2c12bf57088f8852587433346040516100c092919061147a565b60405180910390a1005b600080fd5b3480156100db57600080fd5b506100e46101d2565b6040516100f19190611466565b60405180910390f35b34801561010657600080fd5b506100e46101f6565b34801561011b57600080fd5b5061012461021a565b005b34801561013257600080fd5b506100e4610291565b34801561014757600080fd5b506101506102a0565b6040516100f191906116e3565b34801561016957600080fd5b50610150610178366004611203565b6102b1565b34801561018957600080fd5b506100e461050a565b34801561019e57600080fd5b506101246101ad366004610edc565b61052e565b3480156101be57600080fd5b506101246101cd36600461112a565b61055e565b7f000000000000000000000000000000000000000000000000000000000000000081565b7f000000000000000000000000000000000000000000000000000000000000000081565b6102226102a0565b6102475760405162461bcd60e51b815260040161023e90611863565b60405180910390fd5b600080546040516001600160a01b03909116907f8be0079c531659141344cd1fd0a4f28419497f9722a3daafe3b4186f6b6457e0908390a3600080546001600160a01b0319169055565b6000546001600160a01b031690565b6000546001600160a01b0316331490565b600080888860008181106102c157fe5b90506020020135905060008b8b60008181106102d957fe5b90506020020160208101906102ee9190610edc565b905060006103188989600081811061030257fe5b905060200201358461077690919063ffffffff16565b9050600080606061032b888a018a610ef8565b5050925092509250600080825111801561036b5750836001600160a01b03168260008151811061035757fe5b60200260200101516001600160a01b031614155b905061037a8487858a856107a4565b508051156103c7576103c2848a8a8080601f01602080910402602001604051908101604052809392919081815260200183838082843760009201919091525061086392505050565b6103f8565b846001600160a01b0316836001600160a01b0316146103f85760405162461bcd60e51b815260040161023e90611747565b6040516370a0823160e01b81526000906001600160a01b038716906370a0823190610427903090600401611466565b60206040518083038186803b15801561043f57600080fd5b505afa158015610453573d6000803e3d6000fd5b505050506040513d601f19601f820116820180604052508101906104779190611320565b9050848110156104995760405162461bcd60e51b815260040161023e90611810565b6104bf6104a4610291565b6104ae8388610a28565b6001600160a01b0389169190610a6a565b506104f46001600160a01b0386167f000000000000000000000000000000000000000000000000000000000000000086610ac5565b5060019f9e505050505050505050505050505050565b7f000000000000000000000000000000000000000000000000000000000000000081565b6105366102a0565b6105525760405162461bcd60e51b815260040161023e90611863565b61055b81610b88565b50565b6105666102a0565b6105825760405162461bcd60e51b815260040161023e90611863565b8415806105c457506001600160a01b038a16868660001981018181106105a457fe5b90506020020160208101906105b99190610edc565b6001600160a01b0316145b6105e05760405162461bcd60e51b815260040161023e90611898565b604080516001808252818301909252309160609190602080830190803683370190505090508b8160008151811061061357fe5b6001600160a01b0392909216602092830291909101909101526040805160018082528183019092526060918160200160208202803683370190505090508b8160008151811061065e57fe5b602090810291909101015260408051600180825281830190925260609181602001602082028036833701905050905060008160008151811061069c57fe5b60200260200101818152505060608c8c8c8c8c8c8c8c6040516020016106c99897969594939291906114e1565b60408051601f198184030181529082905263ab9c4b5d60e01b825291506001600160a01b037f0000000000000000000000000000000000000000000000000000000000000000169063ab9c4b5d90610733908890889088908890309089906107c5906004016115bc565b600060405180830381600087803b15801561074d57600080fd5b505af1158015610761573d6000803e3d6000fd5b50505050505050505050505050505050505050565b60008282018381101561079b5760405162461bcd60e51b815260040161023e906117a4565b90505b92915050565b6107d86001600160a01b0385167f000000000000000000000000000000000000000000000000000000000000000084610ac5565b60405162a718a960e01b81526001600160a01b037f0000000000000000000000000000000000000000000000000000000000000000169062a718a99061082a90889088908890889088906004016114ad565b600060405180830381600087803b15801561084457600080fd5b505af1158015610858573d6000803e3d6000fd5b505050505050505050565b60608060608380602001905181019061087c9190610ff1565b945094509450505060008360008151811061089357fe5b602002602001015190506000816001600160a01b03166370a08231306040518263ffffffff1660e01b81526004016108cb9190611466565b60206040518083038186803b1580156108e357600080fd5b505afa1580156108f7573d6000803e3d6000fd5b505050506040513d601f19601f8201168201806040525081019061091b9190611320565b90506000811161093d5760405162461bcd60e51b815260040161023e90611989565b6109716001600160a01b0383167f000000000000000000000000000000000000000000000000000000000000000083610ac5565b6040516356fb7d0160e11b81526001600160a01b037f0000000000000000000000000000000000000000000000000000000000000000169063adf6fa02906109cc9088908890889087908e903090600142019060040161163a565b602060405180830381600087803b1580156109e657600080fd5b505af11580156109fa573d6000803e3d6000fd5b505050506040513d601f19601f82011682018060405250810190610a1e9190611320565b5050505050505050565b600061079b83836040518060400160405280601e81526020017f536166654d6174683a207375627472616374696f6e206f766572666c6f770000815250610c09565b610ac08363a9059cbb60e01b8484604051602401610a8992919061147a565b60408051601f198184030181529190526020810180516001600160e01b03166001600160e01b031990931692909217909152610c35565b505050565b801580610b4d5750604051636eb1769f60e11b81526001600160a01b0384169063dd62ed3e90610afb9030908690600401611493565b60206040518083038186803b158015610b1357600080fd5b505afa158015610b27573d6000803e3d6000fd5b505050506040513d601f19601f82011682018060405250810190610b4b9190611320565b155b610b695760405162461bcd60e51b815260040161023e90611933565b610ac08363095ea7b360e01b8484604051602401610a8992919061147a565b6001600160a01b038116610bae5760405162461bcd60e51b815260040161023e90611701565b600080546040516001600160a01b03808516939216917f8be0079c531659141344cd1fd0a4f28419497f9722a3daafe3b4186f6b6457e091a3600080546001600160a01b0319166001600160a01b0392909216919091179055565b60008184841115610c2d5760405162461bcd60e51b815260040161023e91906116ee565b505050900390565b610c47826001600160a01b0316610d20565b610c635760405162461bcd60e51b815260040161023e906119ca565b60006060836001600160a01b031683604051610c7f919061144a565b6000604051808303816000865af19150503d8060008114610cbc576040519150601f19603f3d011682016040523d82523d6000602084013e610cc1565b606091505b509150915081610ce35760405162461bcd60e51b815260040161023e906117db565b805115610d1a5780806020019051810190610cfe9190611300565b610d1a5760405162461bcd60e51b815260040161023e906118e9565b50505050565b6000813f7fc5d2460186f7233c927e7db2dcc703c0e500b653ca82273b7bfad8045d85a470818114801590610d5457508115155b949350505050565b803561079e81611a98565b60008083601f840112610d78578182fd5b50813567ffffffffffffffff811115610d8f578182fd5b6020830191508360208083028501011115610da957600080fd5b9250929050565b600082601f830112610dc0578081fd5b8135610dd3610dce82611a28565b611a01565b818152915060208083019084810181840286018201871015610df457600080fd5b60005b84811015610e1c578135610e0a81611a98565b84529282019290820190600101610df7565b505050505092915050565b600082601f830112610e37578081fd5b8151610e45610dce82611a28565b818152915060208083019084810181840286018201871015610e6657600080fd5b60005b84811015610e1c578151610e7c81611a98565b84529282019290820190600101610e69565b600082601f830112610e9e578081fd5b8135610eac610dce82611a48565b9150808252836020828501011115610ec357600080fd5b8060208401602084013760009082016020015292915050565b600060208284031215610eed578081fd5b813561079b81611a98565b600080600080600060a08688031215610f0f578081fd5b8535610f1a81611a98565b9450602086810135610f2b81611a98565b9450604087013567ffffffffffffffff80821115610f47578384fd5b610f538a838b01610db0565b95506060890135915080821115610f68578384fd5b610f748a838b01610db0565b94506080890135915080821115610f89578384fd5b508701601f81018913610f9a578283fd5b8035610fa8610dce82611a28565b81815283810190838501865b84811015610fdd57610fcb8e888435890101610e8e565b84529286019290860190600101610fb4565b505080955050505050509295509295909350565b600080600080600060a08688031215611008578081fd5b855161101381611a98565b602087015190955061102481611a98565b604087015190945067ffffffffffffffff80821115611041578283fd5b61104d89838a01610e27565b94506060880151915080821115611062578283fd5b61106e89838a01610e27565b93506080880151915080821115611083578283fd5b508601601f81018813611094578182fd5b80516110a2610dce82611a28565b818152602080820191908401855b8481101561111757815186018d603f8201126110ca578788fd5b60208101516110db610dce82611a48565b8181528f60408385010111156110ef57898afd5b611100826020830160408601611a6c565b8652505060209384019391909101906001016110b0565b5050809450505050509295509295909350565b60008060008060008060008060008060e08b8d031215611148578485fd5b8a3561115381611a98565b995060208b0135985060408b013561116a81611a98565b97506111798c60608d01610d5c565b965060808b013567ffffffffffffffff80821115611195578687fd5b6111a18e838f01610d67565b909850965060a08d01359150808211156111b9578586fd5b6111c58e838f01610d67565b909650945060c08d01359150808211156111dd578384fd5b506111ea8d828e01610d67565b915080935050809150509295989b9194979a5092959850565b600080600080600080600080600060a08a8c031215611220578283fd5b893567ffffffffffffffff80821115611237578485fd5b6112438d838e01610d67565b909b50995060208c013591508082111561125b578485fd5b6112678d838e01610d67565b909950975060408c013591508082111561127f578485fd5b61128b8d838e01610d67565b909750955060608c013591506112a082611a98565b90935060808b013590808211156112b5578384fd5b818c0191508c601f8301126112c8578384fd5b8135818111156112d6578485fd5b8d60208285010111156112e7578485fd5b6020830194508093505050509295985092959850929598565b600060208284031215611311578081fd5b8151801515811461079b578182fd5b600060208284031215611331578081fd5b5051919050565b6001600160a01b03169052565b60008284526020808501945082825b8581101561138257813561136781611a98565b6001600160a01b031687529582019590820190600101611354565b509495945050505050565b6000815180845260208085019450808401835b838110156113825781516001600160a01b0316875295820195908201906001016113a0565b6000815180845260208085019450808401835b83811015611382578151875295820195908201906001016113d8565b60008284528282602086013780602084860101526020601f19601f85011685010190509392505050565b60008151808452611436816020860160208601611a6c565b601f01601f19169290920160200192915050565b6000825161145c818460208701611a6c565b9190910192915050565b6001600160a01b0391909116815260200190565b6001600160a01b03929092168252602082015260400190565b6001600160a01b0392831681529116602082015260400190565b6001600160a01b03958616815293851660208501529190931660408301526060820192909252901515608082015260a00190565b600060018060a01b03808b1683526020818b168185015260a0604085015261150d60a085018a8c611345565b9150838203606085015261152282888a611345565b848103608086015285815291508082018186028301820187855b888110156115a857858303601f190184528135368b9003601e19018112611561578788fd5b8a01803567ffffffffffffffff811115611579578889fd5b8036038c1315611587578889fd5b61159485828985016113f4565b95870195945050509084019060010161153c565b50909e9d5050505050505050505050505050565b600060018060a01b03808a16835260e060208401526115de60e084018a61138d565b83810360408501526115f0818a6113c5565b9050838103606085015261160481896113c5565b9050818716608085015283810360a0850152611620818761141e565b9250505061ffff831660c083015298975050505050505050565b600060e0825261164d60e083018a61138d565b602083820381850152611660828b61138d565b848103604086015289518082529092508183019082810284018301838c01865b838110156116ae57601f1987840301855261169c83835161141e565b94860194925090850190600101611680565b505080955050505050508560608301528460808301526116d160a0830185611338565b8260c083015298975050505050505050565b901515815260200190565b60006020825261079b602083018461141e565b60208082526026908201527f4f776e61626c653a206e6577206f776e657220697320746865207a65726f206160408201526564647265737360d01b606082015260800190565b6020808252603c908201527f6e6f2073776170207061746820646566696e65642c20636f6c6c61746572616c60408201527f206d75737420626520657175616c20746f206c6f616e20617373657400000000606082015260800190565b6020808252601b908201527f536166654d6174683a206164646974696f6e206f766572666c6f770000000000604082015260600190565b6020808252818101527f5361666545524332303a206c6f772d6c6576656c2063616c6c206661696c6564604082015260600190565b60208082526033908201527f696e73756666696369656e7420666c617368206c6f616e2072657061796d656e60408201527207420616d6f756e74206166746572207377617606c1b606082015260800190565b6020808252818101527f4f776e61626c653a2063616c6c6572206973206e6f7420746865206f776e6572604082015260600190565b60208082526031908201527f537761707061207061746820646f6573206e6f74206d617463682074686520616040820152707373657420746f206c697175696461746560781b606082015260800190565b6020808252602a908201527f5361666545524332303a204552433230206f7065726174696f6e20646964206e6040820152691bdd081cdd58d8d9595960b21b606082015260800190565b60208082526036908201527f5361666545524332303a20617070726f76652066726f6d206e6f6e2d7a65726f60408201527520746f206e6f6e2d7a65726f20616c6c6f77616e636560501b606082015260800190565b60208082526021908201527f7377617020636f6c6c61746572616c20616d6f756e74206973206d697373696e6040820152606760f81b606082015260800190565b6020808252601f908201527f5361666545524332303a2063616c6c20746f206e6f6e2d636f6e747261637400604082015260600190565b60405181810167ffffffffffffffff81118282101715611a2057600080fd5b604052919050565b600067ffffffffffffffff821115611a3e578081fd5b5060209081020190565b600067ffffffffffffffff821115611a5e578081fd5b50601f01601f191660200190565b60005b83811015611a87578181015183820152602001611a6f565b83811115610d1a5750506000910152565b6001600160a01b038116811461055b57600080fdfea26469706673582212209deebef96981387f76b1c02bfcb74ce4d47a9a3ebfcdd7bdeccd3055ea53d41f64736f6c634300060c0033",
  "immutableReferences": {
    "26": [
      {
        "length": 32,
        "start": 468
      }
    ],
    "29": [
      {
        "length": 32,
        "start": 1231
      },
      {
        "length": 32,
        "start": 1292
      },
      {
        "length": 32,
        "start": 1776
      },
      {
        "length": 32,
        "start": 1971
      },
      {
        "length": 32,
        "start": 2030
      }
    ],
    "1203": [
      {
        "length": 32,
        "start": 504
      },
      {
        "length": 32,
        "start": 2380
      },
      {
        "length": 32,
        "start": 2440
      }
    ]
  },
  "source": "// SPDX-License-Identifier: MIT\npragma solidity >=0.6.8;\npragma experimental ABIEncoderV2;\n\nimport { ISwappaRouterV1 } from \"./ISwappaRouterV1.sol\";\nimport { Ownable } from \"./Ownable.sol\";\nimport { ILendingPool, ILendingPoolAddressesProvider, IERC20 } from \"./Interfaces.sol\";\nimport { SafeERC20, SafeMath } from \"./Libraries.sol\";\nimport { FlashLoanReceiverBase } from \"./FlashLoanReceiverBase.sol\";\n\ncontract LiquidateLoanV2 is FlashLoanReceiverBase, Ownable {\n\n    using SafeERC20 for IERC20;\n    using SafeMath for uint;\n\n    ISwappaRouterV1 public immutable swappa;\n\n    constructor(\n        ILendingPoolAddressesProvider _addressProvider, // 0xD1088091A174d33412a968Fa34Cb67131188B332\n        ISwappaRouterV1 _swappa // 0xF35ed7156BABF2541E032B3bB8625210316e2832\n    ) FlashLoanReceiverBase(_addressProvider) public {\n        swappa = ISwappaRouterV1(_swappa);\n    }\n\n    /*\n    * This function is manually called to commence the flash loans sequence\n    * to make executing a liquidation flexible calculations are done outside of the contract and sent via parameters here\n    * _assetToLiquidate - the token address of the asset that will be liquidated\n    * _flashAmt - flash loan amount (number of tokens) which is exactly the amount that will be liquidated\n    * _collateral - the token address of the collateral. This is the token that will be received after liquidating loans\n    * _userToLiquidate - user ID of the loan that will be liquidated\n    * _swappaPath / _swappaPairs / _swappaExtras - the path that swappa will use to swap collateral token/aToken back to asset token\n    */\n    function flashLiquidateWithSwappa(\n        address _assetToLiquidate,\n        uint _flashAmt,\n        address _collateral,\n        address _userToLiquidate,\n        address[] calldata _swappaPath,\n        address[] calldata _swappaPairs,\n        bytes[] calldata _swappaExtras\n    ) external onlyOwner {\n        // sanity check the swappa path\n        require(\n            _swappaPath.length == 0 ||\n            _swappaPath[_swappaPath.length - 1] == _assetToLiquidate,\n            \"Swappa path does not match the asset to liquidate\");\n\n        address receiverAddress = address(this);\n\n        // the various assets to be flashed\n        address[] memory assets = new address[](1);\n        assets[0] = _assetToLiquidate;\n\n        // the amount to be flashed for each asset\n        uint[] memory amounts = new uint[](1);\n        amounts[0] = _flashAmt;\n\n        // 0 = no debt, 1 = stable, 2 = variable\n        uint[] memory modes = new uint[](1);\n        modes[0] = 0;\n\n        // passing these params to executeOperation so that they can be used to liquidate the loan and perform the swap\n        bytes memory params = abi.encode(\n            _collateral,\n            _userToLiquidate,\n            _swappaPath,\n            _swappaPairs,\n            _swappaExtras);\n\n        LENDING_POOL.flashLoan(\n            receiverAddress,\n            assets,\n            amounts,\n            modes,\n            // mode is set to 0, no debt will be accrued\n            address(this),\n            params,\n            1989 // my referral code\n        );\n    }\n\n    // LendingPool calls into this in the middle of flashloan\n    function executeOperation(\n        address[] calldata assets,\n        uint[] calldata amounts,\n        uint[] calldata premiums,\n        address /* initiator */,\n        bytes calldata params\n    )\n        external\n        override\n        returns (bool)\n    {\n        // liquidate unhealthy loan\n        uint loanAmount = amounts[0];\n        address loanAsset = assets[0];\n        uint flashLoanRepayment = loanAmount.add(premiums[0]);\n\n        (\n            address collateral,\n            address userToLiquidate,\n            address[] memory swappaPath,\n            , // address[] swappaPairs\n              // bytes[] swappaExtras\n        ) = abi.decode(params, (address, address, address[], address[], bytes[]));\n\n        {\n            // only receive Atoken if we have been provided a swap path from the Atoken to the debt\n            // if no swap path is received, then it means collateral == debt, and we don't want Atoken\n            bool receiveAToken = swappaPath.length > 0 && swappaPath[0] != collateral;\n            liquidateLoan(collateral, loanAsset, userToLiquidate, loanAmount, receiveAToken);\n        }\n\n        // swap collateral to loan asset from flashloan to pay it off, we may have received Atoken\n        if (swappaPath.length > 0) {\n            // require at least the flash loan repayment amount out as a safety\n            swapCollateral(flashLoanRepayment, params);\n        } else {\n            // the only type of liquidation where we do not need to involve swappa is:\n            // - collateral == loan asset\n            // - receiveAToken == false\n            // example is if someone deposited cUSD and borrowed cUSD\n            require(collateral == loanAsset, \"no swap path defined, collateral must be equal to loan asset\");\n        }\n\n        // Pay to owner the profits\n        {\n            uint balance = IERC20(loanAsset).balanceOf(address(this));\n            require(balance >= flashLoanRepayment, \"insufficient flash loan repayment amount after swap\");\n            IERC20(loanAsset).safeTransfer(owner(), balance.sub(flashLoanRepayment));\n        }\n\n        // Approve the LendingPool contract to *pull* the owed amount + premiums\n        IERC20(loanAsset).safeApprove(address(LENDING_POOL), flashLoanRepayment);\n        return true;\n    }\n\n    function liquidateLoan(address _collateral, address _loanAsset, address _user, uint _amount, bool _receiveAToken) private {\n        // approve the flash loaned loan asset to the lending pool for repayment\n        IERC20(_loanAsset).safeApprove(address(LENDING_POOL), _amount);\n        LENDING_POOL.liquidationCall(_collateral, _loanAsset, _user, _amount, _receiveAToken);\n    }\n\n    // assumes the balance of the token is on the contract\n    function swapCollateral(uint amountOutMin, bytes memory params) private {\n        (\n            , // address collateral\n            , // address userToLiquidate\n            address[] memory swappaPath,\n            address[] memory swappaPairs,\n            bytes[] memory swappaExtras\n        ) = abi.decode(params, (address, address, address[], address[], bytes[]));\n        // read the balance from the first token in the swap path, which may be AToken\n        IERC20 collateralOrAToken = IERC20(swappaPath[0]);\n        uint amountIn = collateralOrAToken.balanceOf(address(this));\n        require(amountIn > 0, \"swap collateral amount is missing\");\n\n        // grant swap access to your token, swap ALL of the collateral over to the debt asset\n        collateralOrAToken.safeApprove(address(swappa), amountIn);\n\n        // use swapExactInputForOutputWithPrecheck to precheck the output amount before transfer\n        swappa.swapExactInputForOutputWithPrecheck(\n            swappaPath,\n            swappaPairs,\n            swappaExtras,\n            amountIn,\n            amountOutMin,\n            address(this),\n            block.timestamp + 1\n        );\n    }\n}\n",
  "sourcePath": "/Users/diwu/Projects/moola-liquidator-contract/contracts/LiquidateLoanV2.sol",
  "compiler": {
    "name": "solc",
    "version": "0.6.12+commit.27d51765.Emscripten.clang"
  },
  "schemaVersion": "3.4.4",
  "updatedAt": "2022-02-20T23:18:49.236Z",
  "devdoc": {
    "kind": "dev",
    "methods": {
      "isOwner()": {
        "details": "Returns true if the caller is the current owner."
      },
      "owner()": {
        "details": "Returns the address of the current owner."
      },
      "renounceOwnership()": {
        "details": "Leaves the contract without owner. It will not be possible to call `onlyOwner` functions anymore. Can only be called by the current owner. > Note: Renouncing ownership will leave the contract without an owner, thereby removing any functionality that is only available to the owner."
      },
      "transferOwnership(address)": {
        "details": "Transfers ownership of the contract to a new account (`newOwner`). Can only be called by the current owner."
      }
    },
    "version": 1
  },
  "userdoc": {
    "kind": "user",
    "methods": {},
    "version": 1
  }
}