{
  "contractName": "LiquidateLoanV2",
  "abi": [
    {
      "inputs": [
        {
          "internalType": "contract ILendingPoolAddressesProvider",
          "name": "_addressProvider",
          "type": "address"
        },
        {
          "internalType": "contract ISwappaRouterV1",
          "name": "_swappa",
          "type": "address"
        }
      ],
      "stateMutability": "nonpayable",
      "type": "constructor"
    },
    {
      "anonymous": false,
      "inputs": [
        {
          "indexed": true,
          "internalType": "address",
          "name": "previousOwner",
          "type": "address"
        },
        {
          "indexed": true,
          "internalType": "address",
          "name": "newOwner",
          "type": "address"
        }
      ],
      "name": "OwnershipTransferred",
      "type": "event"
    },
    {
      "anonymous": false,
      "inputs": [
        {
          "indexed": false,
          "internalType": "address",
          "name": "",
          "type": "address"
        },
        {
          "indexed": false,
          "internalType": "uint256",
          "name": "",
          "type": "uint256"
        }
      ],
      "name": "Received",
      "type": "event"
    },
    {
      "inputs": [],
      "name": "ADDRESSES_PROVIDER",
      "outputs": [
        {
          "internalType": "contract ILendingPoolAddressesProvider",
          "name": "",
          "type": "address"
        }
      ],
      "stateMutability": "view",
      "type": "function"
    },
    {
      "inputs": [],
      "name": "LENDING_POOL",
      "outputs": [
        {
          "internalType": "contract ILendingPool",
          "name": "",
          "type": "address"
        }
      ],
      "stateMutability": "view",
      "type": "function"
    },
    {
      "inputs": [],
      "name": "isOwner",
      "outputs": [
        {
          "internalType": "bool",
          "name": "",
          "type": "bool"
        }
      ],
      "stateMutability": "view",
      "type": "function"
    },
    {
      "inputs": [],
      "name": "owner",
      "outputs": [
        {
          "internalType": "address",
          "name": "",
          "type": "address"
        }
      ],
      "stateMutability": "view",
      "type": "function"
    },
    {
      "inputs": [],
      "name": "renounceOwnership",
      "outputs": [],
      "stateMutability": "nonpayable",
      "type": "function"
    },
    {
      "inputs": [],
      "name": "swappa",
      "outputs": [
        {
          "internalType": "contract ISwappaRouterV1",
          "name": "",
          "type": "address"
        }
      ],
      "stateMutability": "view",
      "type": "function"
    },
    {
      "inputs": [
        {
          "internalType": "address",
          "name": "newOwner",
          "type": "address"
        }
      ],
      "name": "transferOwnership",
      "outputs": [],
      "stateMutability": "nonpayable",
      "type": "function"
    },
    {
      "stateMutability": "payable",
      "type": "receive"
    },
    {
      "inputs": [
        {
          "internalType": "address",
          "name": "_assetToLiquidate",
          "type": "address"
        },
        {
          "internalType": "uint256",
          "name": "_flashAmt",
          "type": "uint256"
        },
        {
          "internalType": "address",
          "name": "_collateral",
          "type": "address"
        },
        {
          "internalType": "address",
          "name": "_userToLiquidate",
          "type": "address"
        },
        {
          "internalType": "address[]",
          "name": "_swappaPath",
          "type": "address[]"
        },
        {
          "internalType": "address[]",
          "name": "_swappaPairs",
          "type": "address[]"
        },
        {
          "internalType": "bytes[]",
          "name": "_swappaExtras",
          "type": "bytes[]"
        }
      ],
      "name": "liquidate",
      "outputs": [],
      "stateMutability": "nonpayable",
      "type": "function"
    },
    {
      "inputs": [
        {
          "internalType": "address[]",
          "name": "assets",
          "type": "address[]"
        },
        {
          "internalType": "uint256[]",
          "name": "amounts",
          "type": "uint256[]"
        },
        {
          "internalType": "uint256[]",
          "name": "premiums",
          "type": "uint256[]"
        },
        {
          "internalType": "address",
          "name": "",
          "type": "address"
        },
        {
          "internalType": "bytes",
          "name": "params",
          "type": "bytes"
        }
      ],
      "name": "executeOperation",
      "outputs": [
        {
          "internalType": "bool",
          "name": "",
          "type": "bool"
        }
      ],
      "stateMutability": "nonpayable",
      "type": "function"
    }
  ],
  "bytecode": "0x60e06040523480156200001157600080fd5b5060405162001b0738038062001b0783398101604081905262000034916200015f565b81806001600160a01b03166080816001600160a01b031660601b81525050806001600160a01b0316630261bf8b6040518163ffffffff1660e01b815260040160206040518083038186803b1580156200008c57600080fd5b505afa158015620000a1573d6000803e3d6000fd5b505050506040513d601f19601f82011682018060405250810190620000c7919062000139565b60601b6001600160601b03191660a0525060008054336001600160a01b0319909116178082556040516001600160a01b0390911691907f8be0079c531659141344cd1fd0a4f28419497f9722a3daafe3b4186f6b6457e0908290a360601b6001600160601b03191660c05250620001b6565b6000602082840312156200014b578081fd5b815162000158816200019d565b9392505050565b6000806040838503121562000172578081fd5b82516200017f816200019d565b602084015190925062000192816200019d565b809150509250929050565b6001600160a01b0381168114620001b357600080fd5b50565b60805160601c60a05160601c60c05160601c6118fd6200020a600039806101f85280610a9d5280610b4c52508061052c52806105df5280610793528061089b52806109495250806101d452506118fd6000f3fe60806040526004361061008a5760003560e01c80638f32d59b116100595780638f32d59b1461013b578063920f5c841461015d578063b4dcfc771461017d578063dc6aff6214610192578063f2fde38b146101b2576100ca565b80630542975c146100cf578063056bc3b4146100fa578063715018a61461010f5780638da5cb5b14610126576100ca565b366100ca577f88a5966d370b9919b20f3e2c13ff65706f196a4e32cc2c12bf57088f8852587433346040516100c09291906113dd565b60405180910390a1005b600080fd5b3480156100db57600080fd5b506100e46101d2565b6040516100f191906113c9565b60405180910390f35b34801561010657600080fd5b506100e46101f6565b34801561011b57600080fd5b5061012461021a565b005b34801561013257600080fd5b506100e4610291565b34801561014757600080fd5b506101506102a0565b6040516100f1919061162c565b34801561016957600080fd5b50610150610178366004611182565b6102b1565b34801561018957600080fd5b506100e46105dd565b34801561019e57600080fd5b506101246101ad3660046110a9565b610601565b3480156101be57600080fd5b506101246101cd366004610e5b565b610819565b7f000000000000000000000000000000000000000000000000000000000000000081565b7f000000000000000000000000000000000000000000000000000000000000000081565b6102226102a0565b6102475760405162461bcd60e51b815260040161023e9061175a565b60405180910390fd5b600080546040516001600160a01b03909116907f8be0079c531659141344cd1fd0a4f28419497f9722a3daafe3b4186f6b6457e0908390a3600080546001600160a01b0319169055565b6000546001600160a01b031690565b6000546001600160a01b0316331490565b6000808060606102c385870187610e77565b505092509250925060008b8b60008181106102da57fe5b90506020020135905060008e8e60008181106102f257fe5b90506020020160208101906103079190610e5b565b905060008b8b600081811061031857fe5b9050602002013590506000610336828561084990919063ffffffff16565b9050600085516000141580156103725750876001600160a01b03168660008151811061035e57fe5b60200260200101516001600160a01b031614155b90506103818885898885610877565b50826001600160a01b0316876001600160a01b0316146103db576103db818b8b8080601f0160208091040260200160405190810160405280939291908181526020018383808284376000920191909152506109be92505050565b600061046382856001600160a01b03166370a08231306040518263ffffffff1660e01b815260040161040d91906113c9565b60206040518083038186803b15801561042557600080fd5b505afa158015610439573d6000803e3d6000fd5b505050506040513d601f19601f8201168201806040525081019061045d919061129f565b90610bec565b9050836001600160a01b031663a9059cbb61047c610291565b836040518363ffffffff1660e01b815260040161049a9291906113dd565b602060405180830381600087803b1580156104b457600080fd5b505af11580156104c8573d6000803e3d6000fd5b505050506040513d601f19601f820116820180604052508101906104ec919061127f565b6105085760405162461bcd60e51b815260040161023e9061172b565b60405163095ea7b360e01b81526001600160a01b0385169063095ea7b390610556907f00000000000000000000000000000000000000000000000000000000000000009086906004016113dd565b602060405180830381600087803b15801561057057600080fd5b505af1158015610584573d6000803e3d6000fd5b505050506040513d601f19601f820116820180604052508101906105a8919061127f565b6105c45760405162461bcd60e51b815260040161023e906116f4565b6001985050505050505050509998505050505050505050565b7f000000000000000000000000000000000000000000000000000000000000000081565b6106096102a0565b6106255760405162461bcd60e51b815260040161023e9061175a565b84158061066757506001600160a01b038a168686600019810181811061064757fe5b905060200201602081019061065c9190610e5b565b6001600160a01b0316145b6106835760405162461bcd60e51b815260040161023e9061178f565b604080516001808252818301909252309160609190602080830190803683370190505090508b816000815181106106b657fe5b6001600160a01b0392909216602092830291909101909101526040805160018082528183019092526060918160200160208202803683370190505090508b8160008151811061070157fe5b602090810291909101015260408051600180825281830190925260609181602001602082028036833701905050905060008160008151811061073f57fe5b60200260200101818152505060608c8c8c8c8c8c8c8c60405160200161076c98979695949392919061142a565b60408051601f198184030181529082905263ab9c4b5d60e01b825291506001600160a01b037f0000000000000000000000000000000000000000000000000000000000000000169063ab9c4b5d906107d6908890889088908890309089906107c590600401611505565b600060405180830381600087803b1580156107f057600080fd5b505af1158015610804573d6000803e3d6000fd5b50505050505050505050505050505050505050565b6108216102a0565b61083d5760405162461bcd60e51b815260040161023e9061175a565b61084681610c2e565b50565b60008282018381101561086e5760405162461bcd60e51b815260040161023e906116bd565b90505b92915050565b60405163095ea7b360e01b81526001600160a01b0385169063095ea7b3906108c5907f00000000000000000000000000000000000000000000000000000000000000009086906004016113dd565b602060405180830381600087803b1580156108df57600080fd5b505af11580156108f3573d6000803e3d6000fd5b505050506040513d601f19601f82011682018060405250810190610917919061127f565b6109335760405162461bcd60e51b815260040161023e906117e0565b60405162a718a960e01b81526001600160a01b037f0000000000000000000000000000000000000000000000000000000000000000169062a718a99061098590889088908890889088906004016113f6565b600060405180830381600087803b15801561099f57600080fd5b505af11580156109b3573d6000803e3d6000fd5b505050505050505050565b6060806060838060200190518101906109d79190610f70565b94509450945050506000836000815181106109ee57fe5b602002602001015190506000816001600160a01b03166370a08231306040518263ffffffff1660e01b8152600401610a2691906113c9565b60206040518083038186803b158015610a3e57600080fd5b505afa158015610a52573d6000803e3d6000fd5b505050506040513d601f19601f82011682018060405250810190610a76919061129f565b60405163095ea7b360e01b81529091506001600160a01b0383169063095ea7b390610ac7907f00000000000000000000000000000000000000000000000000000000000000009085906004016113dd565b602060405180830381600087803b158015610ae157600080fd5b505af1158015610af5573d6000803e3d6000fd5b505050506040513d601f19601f82011682018060405250810190610b19919061127f565b610b355760405162461bcd60e51b815260040161023e90611690565b6040516356fb7d0160e11b81526001600160a01b037f0000000000000000000000000000000000000000000000000000000000000000169063adf6fa0290610b909088908890889087908e903090600a420190600401611583565b602060405180830381600087803b158015610baa57600080fd5b505af1158015610bbe573d6000803e3d6000fd5b505050506040513d601f19601f82011682018060405250810190610be2919061129f565b5050505050505050565b600061086e83836040518060400160405280601e81526020017f536166654d6174683a207375627472616374696f6e206f766572666c6f770000815250610caf565b6001600160a01b038116610c545760405162461bcd60e51b815260040161023e9061164a565b600080546040516001600160a01b03808516939216917f8be0079c531659141344cd1fd0a4f28419497f9722a3daafe3b4186f6b6457e091a3600080546001600160a01b0319166001600160a01b0392909216919091179055565b60008184841115610cd35760405162461bcd60e51b815260040161023e9190611637565b505050900390565b8035610871816118b2565b60008083601f840112610cf7578182fd5b50813567ffffffffffffffff811115610d0e578182fd5b6020830191508360208083028501011115610d2857600080fd5b9250929050565b600082601f830112610d3f578081fd5b8135610d52610d4d8261183e565b611817565b818152915060208083019084810181840286018201871015610d7357600080fd5b60005b84811015610d9b578135610d89816118b2565b84529282019290820190600101610d76565b505050505092915050565b600082601f830112610db6578081fd5b8151610dc4610d4d8261183e565b818152915060208083019084810181840286018201871015610de557600080fd5b60005b84811015610d9b578151610dfb816118b2565b84529282019290820190600101610de8565b600082601f830112610e1d578081fd5b8135610e2b610d4d8261185e565b9150808252836020828501011115610e4257600080fd5b8060208401602084013760009082016020015292915050565b600060208284031215610e6c578081fd5b813561086e816118b2565b600080600080600060a08688031215610e8e578081fd5b8535610e99816118b2565b9450602086810135610eaa816118b2565b9450604087013567ffffffffffffffff80821115610ec6578384fd5b610ed28a838b01610d2f565b95506060890135915080821115610ee7578384fd5b610ef38a838b01610d2f565b94506080890135915080821115610f08578384fd5b508701601f81018913610f19578283fd5b8035610f27610d4d8261183e565b81815283810190838501865b84811015610f5c57610f4a8e888435890101610e0d565b84529286019290860190600101610f33565b505080955050505050509295509295909350565b600080600080600060a08688031215610f87578081fd5b8551610f92816118b2565b6020870151909550610fa3816118b2565b604087015190945067ffffffffffffffff80821115610fc0578283fd5b610fcc89838a01610da6565b94506060880151915080821115610fe1578283fd5b610fed89838a01610da6565b93506080880151915080821115611002578283fd5b508601601f81018813611013578182fd5b8051611021610d4d8261183e565b818152602080820191908401855b8481101561109657815186018d603f820112611049578788fd5b602081015161105a610d4d8261185e565b8181528f604083850101111561106e57898afd5b61107f826020830160408601611882565b86525050602093840193919091019060010161102f565b5050809450505050509295509295909350565b60008060008060008060008060008060e08b8d0312156110c7578485fd5b8a356110d2816118b2565b995060208b0135985060408b01356110e9816118b2565b97506110f88c60608d01610cdb565b965060808b013567ffffffffffffffff80821115611114578687fd5b6111208e838f01610ce6565b909850965060a08d0135915080821115611138578586fd5b6111448e838f01610ce6565b909650945060c08d013591508082111561115c578384fd5b506111698d828e01610ce6565b915080935050809150509295989b9194979a5092959850565b600080600080600080600080600060a08a8c03121561119f578283fd5b893567ffffffffffffffff808211156111b6578485fd5b6111c28d838e01610ce6565b909b50995060208c01359150808211156111da578485fd5b6111e68d838e01610ce6565b909950975060408c01359150808211156111fe578485fd5b61120a8d838e01610ce6565b909750955060608c0135915061121f826118b2565b90935060808b01359080821115611234578384fd5b818c0191508c601f830112611247578384fd5b813581811115611255578485fd5b8d6020828501011115611266578485fd5b6020830194508093505050509295985092959850929598565b600060208284031215611290578081fd5b8151801515811461086e578182fd5b6000602082840312156112b0578081fd5b5051919050565b6001600160a01b03169052565b60008284526020808501945082825b858110156113015781356112e6816118b2565b6001600160a01b0316875295820195908201906001016112d3565b509495945050505050565b6000815180845260208085019450808401835b838110156113015781516001600160a01b03168752958201959082019060010161131f565b6000815180845260208085019450808401835b8381101561130157815187529582019590820190600101611357565b60008284528282602086013780602084860101526020601f19601f85011685010190509392505050565b600081518084526113b5816020860160208601611882565b601f01601f19169290920160200192915050565b6001600160a01b0391909116815260200190565b6001600160a01b03929092168252602082015260400190565b6001600160a01b03958616815293851660208501529190931660408301526060820192909252901515608082015260a00190565b600060018060a01b03808b1683526020818b168185015260a0604085015261145660a085018a8c6112c4565b9150838203606085015261146b82888a6112c4565b848103608086015285815291508082018186028301820187855b888110156114f157858303601f190184528135368b9003601e190181126114aa578788fd5b8a01803567ffffffffffffffff8111156114c2578889fd5b8036038c13156114d0578889fd5b6114dd8582898501611373565b958701959450505090840190600101611485565b50909e9d5050505050505050505050505050565b600060018060a01b03808a16835260e0602084015261152760e084018a61130c565b8381036040850152611539818a611344565b9050838103606085015261154d8189611344565b9050818716608085015283810360a0850152611569818761139d565b9250505061ffff831660c083015298975050505050505050565b600060e0825261159660e083018a61130c565b6020838203818501526115a9828b61130c565b848103604086015289518082529092508183019082810284018301838c01865b838110156115f757601f198784030185526115e583835161139d565b948601949250908501906001016115c9565b5050809550505050505085606083015284608083015261161a60a08301856112b7565b8260c083015298975050505050505050565b901515815260200190565b60006020825261086e602083018461139d565b60208082526026908201527f4f776e61626c653a206e6577206f776e657220697320746865207a65726f206160408201526564647265737360d01b606082015260800190565b60208082526013908201527239bbb0b81030b8383937bb30b61032b93937b960691b604082015260600190565b6020808252601b908201527f536166654d6174683a206164646974696f6e206f766572666c6f770000000000604082015260600190565b6020808252601a908201527f666c617368206c6f616e2072657061796d656e74206572726f72000000000000604082015260600190565b602080825260159082015274383937b334ba103a3930b739b332b91032b93937b960591b604082015260600190565b6020808252818101527f4f776e61626c653a2063616c6c6572206973206e6f7420746865206f776e6572604082015260600190565b60208082526031908201527f537761707061207061746820646f6573206e6f74206d617463682074686520616040820152707373657420746f206c697175696461746560781b606082015260800190565b6020808252601d908201527f6c6971756964617465206c6f616e20617070726f76616c206572726f72000000604082015260600190565b60405181810167ffffffffffffffff8111828210171561183657600080fd5b604052919050565b600067ffffffffffffffff821115611854578081fd5b5060209081020190565b600067ffffffffffffffff821115611874578081fd5b50601f01601f191660200190565b60005b8381101561189d578181015183820152602001611885565b838111156118ac576000848401525b50505050565b6001600160a01b038116811461084657600080fdfea2646970667358221220681bcb0639011f58be3cb52465249946404dc788aba02fd70aa03ba1451ec5f164736f6c634300060c0033",
  "immutableReferences": {
    "26": [
      {
        "length": 32,
        "start": 468
      }
    ],
    "29": [
      {
        "length": 32,
        "start": 1324
      },
      {
        "length": 32,
        "start": 1503
      },
      {
        "length": 32,
        "start": 1939
      },
      {
        "length": 32,
        "start": 2203
      },
      {
        "length": 32,
        "start": 2377
      }
    ],
    "1203": [
      {
        "length": 32,
        "start": 504
      },
      {
        "length": 32,
        "start": 2717
      },
      {
        "length": 32,
        "start": 2892
      }
    ]
  },
  "source": "// SPDX-License-Identifier: MIT\npragma solidity >=0.6.8;\npragma experimental ABIEncoderV2;\n\nimport { ISwappaRouterV1 } from \"./ISwappaRouterV1.sol\";\nimport { Ownable } from \"./Ownable.sol\";\nimport { ILendingPool, ILendingPoolAddressesProvider, IERC20 } from \"./Interfaces.sol\";\nimport { SafeERC20, SafeMath } from \"./Libraries.sol\";\nimport { FlashLoanReceiverBase } from \"./FlashLoanReceiverBase.sol\";\n\ncontract LiquidateLoanV2 is FlashLoanReceiverBase, Ownable {\n\n    using SafeERC20 for IERC20;\n    using SafeMath for uint256;\n\n    ISwappaRouterV1 public immutable swappa;\n\n    constructor(\n        ILendingPoolAddressesProvider _addressProvider,\n        ISwappaRouterV1 _swappa\n    ) FlashLoanReceiverBase(_addressProvider) public {\n        swappa = ISwappaRouterV1(_swappa);\n    }\n\n    /**\n    Given an asset to liquidate, and the collateral to collect on, and a swap path\n    compatible with the given swap router:\n    1. initiate a flash swap to receive flash amount of the asset to liquidate\n    2. inside flash swap, repay the lending pool, and receive the collateral as Atoken\n    3. unwrap Atoken to the first token in the swap path as needed\n    4. use the swap path to complete the flash swap\n    5. transfer the remainder to the owner\n     */\n    function liquidate(\n        address _assetToLiquidate,\n        uint256 _flashAmt,\n        address _collateral,\n        address _userToLiquidate,\n        address[] calldata _swappaPath,\n        address[] calldata _swappaPairs,\n        bytes[] calldata _swappaExtras\n    ) external onlyOwner {\n        // sanity check the swappa path\n        require(\n            _swappaPath.length == 0 ||\n            _swappaPath[_swappaPath.length - 1] == _assetToLiquidate,\n            \"Swappa path does not match the asset to liquidate\");\n\n        address receiverAddress = address(this);\n\n        // the various assets to be flashed\n        address[] memory assets = new address[](1);\n        assets[0] = _assetToLiquidate;\n\n        // the amount to be flashed for each asset\n        uint256[] memory amounts = new uint256[](1);\n        amounts[0] = _flashAmt;\n\n        // 0 = no debt, 1 = stable, 2 = variable\n        uint256[] memory modes = new uint256[](1);\n        modes[0] = 0;\n\n        // passing these params to executeOperation so that they can be used to liquidate the loan and perform the swap\n        bytes memory params = abi.encode(\n            _collateral,\n            _userToLiquidate,\n            _swappaPath,\n            _swappaPairs,\n            _swappaExtras);\n\n        LENDING_POOL.flashLoan(\n            receiverAddress,\n            assets,\n            amounts,\n            modes,\n            // mode is set to 0, no debt will be accrued\n            address(this),\n            params,\n            1989 // my referral code\n        );\n    }\n\n    function executeOperation(\n        address[] calldata assets,\n        uint256[] calldata amounts,\n        uint256[] calldata premiums,\n        address /* initiator */,\n        bytes calldata params\n    )\n        external\n        override\n        returns (bool)\n    {\n        (\n            address collateral,\n            address userToLiquidate,\n            address[] memory swappaPath,\n            , // address[] swappaPairs\n            // bytes[] swappaExtras\n        ) = abi.decode(params, (address, address, address[], address[], bytes[]));\n\n        // liquidate unhealthy loan\n        uint256 loanAmount = amounts[0];\n        address loanAsset = assets[0];\n        uint256 flashloanFee = premiums[0];\n        uint256 flashLoanRepayment = loanAmount.add(flashloanFee);\n\n        {\n            bool receiveAToken = swappaPath.length != 0 && swappaPath[0] != collateral;\n            liquidateLoan(collateral, loanAsset, userToLiquidate, loanAmount, receiveAToken);\n        }\n\n        // swap collateral from collateral back to loan asset from flashloan to pay it off\n        if (collateral != loanAsset) {\n            // require at least the flash loan repayment amount out as a safety\n            swapCollateral(flashLoanRepayment, params);\n        }\n\n        // Pay to owner the profits\n        uint256 profit = IERC20(loanAsset).balanceOf(address(this)).sub(flashLoanRepayment);\n        require(IERC20(loanAsset).transfer(owner(), profit), \"profit transfer error\");\n\n        // Approve the LendingPool contract to *pull* the owed amount + premiums\n        require(IERC20(loanAsset).approve(address(LENDING_POOL), flashLoanRepayment), \"flash loan repayment error\");\n        return true;\n    }\n\n    function liquidateLoan(address _collateral, address _reserve, address _user, uint256 _amount, bool _receiveAToken) private {\n        require(IERC20(_reserve).approve(address(LENDING_POOL), _amount), \"liquidate loan approval error\");\n        LENDING_POOL.liquidationCall(_collateral, _reserve, _user, _amount, _receiveAToken);\n    }\n\n    // assumes the balance of the token is on the contract\n    function swapCollateral(uint amountOutMin, bytes memory params) private {\n        (\n            , // address collateral\n            , // address userToLiquidate\n            address[] memory swappaPath,\n            address[] memory swappaPairs,\n            bytes[] memory swappaExtras\n        ) = abi.decode(params, (address, address, address[], address[], bytes[]));\n        IERC20 collateralToken = IERC20(swappaPath[0]);\n        uint256 amountToTrade = collateralToken.balanceOf(address(this));\n\n        // grant swap access to your token, swap ALL of the collateral over to the debt asset\n        require(collateralToken.approve(address(swappa), amountToTrade), \"swap approval error\");\n\n        swappa.swapExactInputForOutputWithPrecheck(\n            swappaPath,\n            swappaPairs,\n            swappaExtras,\n            amountToTrade,\n            amountOutMin,\n            address(this),\n            block.timestamp + 10\n        );\n    }\n}\n",
  "sourcePath": "/Users/diwu/Projects/moola-liquidator-contract/contracts/LiquidateLoanV2.sol",
  "compiler": {
    "name": "solc",
    "version": "0.6.12+commit.27d51765.Emscripten.clang"
  },
  "schemaVersion": "3.4.4",
  "updatedAt": "2022-01-24T06:51:00.690Z",
  "devdoc": {
    "kind": "dev",
    "methods": {
      "isOwner()": {
        "details": "Returns true if the caller is the current owner."
      },
      "owner()": {
        "details": "Returns the address of the current owner."
      },
      "renounceOwnership()": {
        "details": "Leaves the contract without owner. It will not be possible to call `onlyOwner` functions anymore. Can only be called by the current owner. > Note: Renouncing ownership will leave the contract without an owner, thereby removing any functionality that is only available to the owner."
      },
      "transferOwnership(address)": {
        "details": "Transfers ownership of the contract to a new account (`newOwner`). Can only be called by the current owner."
      }
    },
    "version": 1
  },
  "userdoc": {
    "kind": "user",
    "methods": {
      "liquidate(address,uint256,address,address,address[],address[],bytes[])": {
        "notice": "Given an asset to liquidate, and the collateral to collect on, and a swap path compatible with the given swap router: 1. initiate a flash swap to receive flash amount of the asset to liquidate 2. inside flash swap, repay the lending pool, and receive the collateral as Atoken 3. unwrap Atoken to the first token in the swap path as needed 4. use the swap path to complete the flash swap 5. transfer the remainder to the owner"
      }
    },
    "version": 1
  }
}