{
  "contractName": "LiquidateLoan",
  "abi": [
    {
      "inputs": [
        {
          "internalType": "contract ILendingPoolAddressesProvider",
          "name": "_addressProvider",
          "type": "address"
        },
        {
          "internalType": "contract IUniswapV2Router02",
          "name": "_uniswapV2Router",
          "type": "address"
        }
      ],
      "stateMutability": "nonpayable",
      "type": "constructor"
    },
    {
      "anonymous": false,
      "inputs": [
        {
          "indexed": false,
          "internalType": "string",
          "name": "stringFailure",
          "type": "string"
        }
      ],
      "name": "ErrorHandled",
      "type": "event"
    },
    {
      "anonymous": false,
      "inputs": [
        {
          "indexed": true,
          "internalType": "address",
          "name": "previousOwner",
          "type": "address"
        },
        {
          "indexed": true,
          "internalType": "address",
          "name": "newOwner",
          "type": "address"
        }
      ],
      "name": "OwnershipTransferred",
      "type": "event"
    },
    {
      "anonymous": false,
      "inputs": [
        {
          "indexed": false,
          "internalType": "address",
          "name": "",
          "type": "address"
        },
        {
          "indexed": false,
          "internalType": "uint256",
          "name": "",
          "type": "uint256"
        }
      ],
      "name": "Received",
      "type": "event"
    },
    {
      "inputs": [],
      "name": "ADDRESSES_PROVIDER",
      "outputs": [
        {
          "internalType": "contract ILendingPoolAddressesProvider",
          "name": "",
          "type": "address"
        }
      ],
      "stateMutability": "view",
      "type": "function"
    },
    {
      "inputs": [],
      "name": "LENDING_POOL",
      "outputs": [
        {
          "internalType": "contract ILendingPool",
          "name": "",
          "type": "address"
        }
      ],
      "stateMutability": "view",
      "type": "function"
    },
    {
      "inputs": [],
      "name": "isOwner",
      "outputs": [
        {
          "internalType": "bool",
          "name": "",
          "type": "bool"
        }
      ],
      "stateMutability": "view",
      "type": "function"
    },
    {
      "inputs": [],
      "name": "owner",
      "outputs": [
        {
          "internalType": "address",
          "name": "",
          "type": "address"
        }
      ],
      "stateMutability": "view",
      "type": "function"
    },
    {
      "inputs": [],
      "name": "renounceOwnership",
      "outputs": [],
      "stateMutability": "nonpayable",
      "type": "function"
    },
    {
      "inputs": [],
      "name": "swapRouter",
      "outputs": [
        {
          "internalType": "contract IUniswapV2Router02",
          "name": "",
          "type": "address"
        }
      ],
      "stateMutability": "view",
      "type": "function"
    },
    {
      "inputs": [
        {
          "internalType": "address",
          "name": "newOwner",
          "type": "address"
        }
      ],
      "name": "transferOwnership",
      "outputs": [],
      "stateMutability": "nonpayable",
      "type": "function"
    },
    {
      "stateMutability": "payable",
      "type": "receive"
    },
    {
      "inputs": [
        {
          "internalType": "address[]",
          "name": "assets",
          "type": "address[]"
        },
        {
          "internalType": "uint256[]",
          "name": "amounts",
          "type": "uint256[]"
        },
        {
          "internalType": "uint256[]",
          "name": "premiums",
          "type": "uint256[]"
        },
        {
          "internalType": "address",
          "name": "",
          "type": "address"
        },
        {
          "internalType": "bytes",
          "name": "params",
          "type": "bytes"
        }
      ],
      "name": "executeOperation",
      "outputs": [
        {
          "internalType": "bool",
          "name": "",
          "type": "bool"
        }
      ],
      "stateMutability": "nonpayable",
      "type": "function"
    },
    {
      "inputs": [
        {
          "internalType": "address",
          "name": "_assetToLiquidate",
          "type": "address"
        },
        {
          "internalType": "uint256",
          "name": "_flashAmt",
          "type": "uint256"
        },
        {
          "internalType": "address",
          "name": "_collateral",
          "type": "address"
        },
        {
          "internalType": "address",
          "name": "_userToLiquidate",
          "type": "address"
        },
        {
          "internalType": "address[]",
          "name": "_swapPath",
          "type": "address[]"
        },
        {
          "internalType": "address",
          "name": "_receivedToken",
          "type": "address"
        }
      ],
      "name": "executeFlashLoans",
      "outputs": [],
      "stateMutability": "nonpayable",
      "type": "function"
    }
  ],
  "bytecode": "0x60e060405234801561001057600080fd5b506040516117273803806117278339818101604052604081101561003357600080fd5b5080516020918201516001600160601b0319606083901b1660805260408051630261bf8b60e01b815290519293919284926001600160a01b03841692630261bf8b9260048083019392829003018186803b15801561009057600080fd5b505afa1580156100a4573d6000803e3d6000fd5b505050506040513d60208110156100ba57600080fd5b505160601b6001600160601b03191660a0525060008054336001600160a01b0319909116178082556040516001600160a01b0390911691907f8be0079c531659141344cd1fd0a4f28419497f9722a3daafe3b4186f6b6457e0908290a36001600160601b031960609190911b1660c0525060805160601c60a05160601c60c05160601c6115a961017e60003980610cf5528061100852806110db52508061082b5280610ae35280610cd15280610dee5280610f1152508061040c52506115a96000f3fe60806040526004361061008a5760003560e01c8063920f5c8411610059578063920f5c841461015657806399f12e79146102ce578063b4dcfc77146103ad578063c31c9c07146103c2578063f2fde38b146103d7576100cb565b80630542975c146100d0578063715018a6146101015780638da5cb5b146101185780638f32d59b1461012d576100cb565b366100cb576040805133815234602082015281517f88a5966d370b9919b20f3e2c13ff65706f196a4e32cc2c12bf57088f88525874929181900390910190a1005b600080fd5b3480156100dc57600080fd5b506100e561040a565b604080516001600160a01b039092168252519081900360200190f35b34801561010d57600080fd5b5061011661042e565b005b34801561012457600080fd5b506100e56104d1565b34801561013957600080fd5b506101426104e1565b604080519115158252519081900360200190f35b34801561016257600080fd5b50610142600480360360a081101561017957600080fd5b810190602081018135600160201b81111561019357600080fd5b8201836020820111156101a557600080fd5b803590602001918460208302840111600160201b831117156101c657600080fd5b919390929091602081019035600160201b8111156101e357600080fd5b8201836020820111156101f557600080fd5b803590602001918460208302840111600160201b8311171561021657600080fd5b919390929091602081019035600160201b81111561023357600080fd5b82018360208201111561024557600080fd5b803590602001918460208302840111600160201b8311171561026657600080fd5b919390926001600160a01b0383351692604081019060200135600160201b81111561029057600080fd5b8201836020820111156102a257600080fd5b803590602001918460018302840111600160201b831117156102c357600080fd5b5090925090506104f2565b3480156102da57600080fd5b50610116600480360360c08110156102f157600080fd5b6001600160a01b0382358116926020810135926040820135831692606083013516919081019060a081016080820135600160201b81111561033157600080fd5b82018360208201111561034357600080fd5b803590602001918460208302840111600160201b8311171561036457600080fd5b919080806020026020016040519081016040528093929190818152602001838360200280828437600092019190915250929550505090356001600160a01b031691506109299050565b3480156103b957600080fd5b506100e5610ccf565b3480156103ce57600080fd5b506100e5610cf3565b3480156103e357600080fd5b50610116600480360360208110156103fa57600080fd5b50356001600160a01b0316610d17565b7f000000000000000000000000000000000000000000000000000000000000000081565b6104366104e1565b610487576040805162461bcd60e51b815260206004820181905260248201527f4f776e61626c653a2063616c6c6572206973206e6f7420746865206f776e6572604482015290519081900360640190fd5b600080546040516001600160a01b03909116907f8be0079c531659141344cd1fd0a4f28419497f9722a3daafe3b4186f6b6457e0908390a3600080546001600160a01b0319169055565b6000546001600160a01b03165b90565b6000546001600160a01b0316331490565b6000806000606060008686608081101561050b57600080fd5b6001600160a01b038235811692602081013590911691810190606081016040820135600160201b81111561053e57600080fd5b82018360208201111561055057600080fd5b803590602001918460208302840111600160201b8311171561057157600080fd5b919080806020026020016040519081016040528093929190818152602001838360200280828437600081840152601f19601f82011690508083019250505050505050919291929080356001600160a01b03169060200190929190505050935093509350935060008c8c60008181106105e557fe5b90506020020135905060008f8f60008181106105fd57fe5b905060200201356001600160a01b0316905060008c8c600081811061061e57fe5b905060200201359050600061063c8285610d7c90919063ffffffff16565b90506001600160a01b03858116908916141561065b89858a8885610ddd565b836001600160a01b0316896001600160a01b03161461067f5761067f868389610f79565b600061070483866001600160a01b03166370a08231306040518263ffffffff1660e01b815260040180826001600160a01b0316815260200191505060206040518083038186803b1580156106d257600080fd5b505afa1580156106e6573d6000803e3d6000fd5b505050506040513d60208110156106fc57600080fd5b505190611329565b905060008111610747576040805162461bcd60e51b8152602060048201526009602482015268139bc81c1c9bd99a5d60ba1b604482015290519081900360640190fd5b846001600160a01b031663a9059cbb61075e6104d1565b836040518363ffffffff1660e01b815260040180836001600160a01b0316815260200182815260200192505050602060405180830381600087803b1580156107a557600080fd5b505af11580156107b9573d6000803e3d6000fd5b505050506040513d60208110156107cf57600080fd5b505161081a576040805162461bcd60e51b8152602060048201526015602482015274383937b334ba103a3930b739b332b91032b93937b960591b604482015290519081900360640190fd5b846001600160a01b031663095ea7b37f0000000000000000000000000000000000000000000000000000000000000000856040518363ffffffff1660e01b815260040180836001600160a01b0316815260200182815260200192505050602060405180830381600087803b15801561089157600080fd5b505af11580156108a5573d6000803e3d6000fd5b505050506040513d60208110156108bb57600080fd5b505161090e576040805162461bcd60e51b815260206004820152601a60248201527f666c617368206c6f616e2072657061796d656e74206572726f72000000000000604482015290519081900360640190fd5b60019a50505050505050505050509998505050505050505050565b6109316104e1565b610982576040805162461bcd60e51b815260206004820181905260248201527f4f776e61626c653a2063616c6c6572206973206e6f7420746865206f776e6572604482015290519081900360640190fd5b6040805160018082528183019092523091606091906020808301908036833701905050905087816000815181106109b557fe5b6001600160a01b0392909216602092830291909101909101526040805160018082528183019092526060918160200160208202803683370190505090508781600081518110610a0057fe5b6020908102919091010152604080516001808252818301909252606091816020016020820280368337019050509050600081600081518110610a3e57fe5b60200260200101818152505060608888888860405160200180856001600160a01b03168152602001846001600160a01b0316815260200180602001836001600160a01b03168152602001828103825284818151815260200191508051906020019060200280838360005b83811015610ac0578181015183820152602001610aa8565b5050505090500195505050505050604051602081830303815290604052905060007f00000000000000000000000000000000000000000000000000000000000000006001600160a01b031663ab9c4b5d878787873088886040518863ffffffff1660e01b815260040180886001600160a01b03168152602001806020018060200180602001876001600160a01b03168152602001806020018661ffff16815260200185810385528b818151815260200191508051906020019060200280838360005b83811015610b9a578181015183820152602001610b82565b5050505090500185810384528a818151815260200191508051906020019060200280838360005b83811015610bd9578181015183820152602001610bc1565b50505050905001858103835289818151815260200191508051906020019060200280838360005b83811015610c18578181015183820152602001610c00565b50505050905001858103825287818151815260200191508051906020019080838360005b83811015610c54578181015183820152602001610c3c565b50505050905090810190601f168015610c815780820380516001836020036101000a031916815260200191505b509b505050505050505050505050600060405180830381600087803b158015610ca957600080fd5b505af1158015610cbd573d6000803e3d6000fd5b50505050505050505050505050505050565b7f000000000000000000000000000000000000000000000000000000000000000081565b7f000000000000000000000000000000000000000000000000000000000000000081565b610d1f6104e1565b610d70576040805162461bcd60e51b815260206004820181905260248201527f4f776e61626c653a2063616c6c6572206973206e6f7420746865206f776e6572604482015290519081900360640190fd5b610d798161136b565b50565b600082820183811015610dd6576040805162461bcd60e51b815260206004820152601b60248201527f536166654d6174683a206164646974696f6e206f766572666c6f770000000000604482015290519081900360640190fd5b9392505050565b836001600160a01b031663095ea7b37f0000000000000000000000000000000000000000000000000000000000000000846040518363ffffffff1660e01b815260040180836001600160a01b0316815260200182815260200192505050602060405180830381600087803b158015610e5457600080fd5b505af1158015610e68573d6000803e3d6000fd5b505050506040513d6020811015610e7e57600080fd5b5051610ed1576040805162461bcd60e51b815260206004820152601d60248201527f6c6971756964617465206c6f616e20617070726f76616c206572726f72000000604482015290519081900360640190fd5b6040805162a718a960e01b81526001600160a01b0387811660048301528681166024830152858116604483015260648201859052831515608483015291517f00000000000000000000000000000000000000000000000000000000000000009092169162a718a99160a48082019260009290919082900301818387803b158015610f5a57600080fd5b505af1158015610f6e573d6000803e3d6000fd5b505050505050505050565b604080516370a0823160e01b8152306004820152905184916000916001600160a01b038416916370a08231916024808301926020929190829003018186803b158015610fc457600080fd5b505afa158015610fd8573d6000803e3d6000fd5b505050506040513d6020811015610fee57600080fd5b50516040805163095ea7b360e01b81526001600160a01b037f0000000000000000000000000000000000000000000000000000000000000000811660048301526024820184905291519293509084169163095ea7b3916044808201926020929091908290030181600087803b15801561106657600080fd5b505af115801561107a573d6000803e3d6000fd5b505050506040513d602081101561109057600080fd5b50516110d9576040805162461bcd60e51b815260206004820152601360248201527239bbb0b81030b8383937bb30b61032b93937b960691b604482015290519081900360640190fd5b7f00000000000000000000000000000000000000000000000000000000000000006001600160a01b03166338ed17398286863042600a016040518663ffffffff1660e01b81526004018086815260200185815260200180602001846001600160a01b03168152602001838152602001828103825285818151815260200191508051906020019060200280838360005b83811015611180578181015183820152602001611168565b505050509050019650505050505050600060405180830381600087803b1580156111a957600080fd5b505af192505050801561126957506040513d6000823e601f3d908101601f1916820160405260208110156111dc57600080fd5b8101908080516040519392919084600160201b8211156111fb57600080fd5b90830190602082018581111561121057600080fd5b82518660208202830111600160201b8211171561122c57600080fd5b82525081516020918201928201910280838360005b83811015611259578181015183820152602001611241565b5050505090500160405250505060015b611320576112756114a8565b80611280575061131b565b7f4f17d5cf0427b4fe5e5649c407d3021315cfaa7216c9e58c369ef3937c40801a816040518080602001828103825283818151815260200191508051906020019080838360005b838110156112df5781810151838201526020016112c7565b50505050905090810190601f16801561130c5780820380516001836020036101000a031916815260200191505b509250505060405180910390a1505b611322565b505b5050505050565b6000610dd683836040518060400160405280601e81526020017f536166654d6174683a207375627472616374696f6e206f766572666c6f77000081525061140b565b6001600160a01b0381166113b05760405162461bcd60e51b815260040180806020018281038252602681526020018061154e6026913960400191505060405180910390fd5b600080546040516001600160a01b03808516939216917f8be0079c531659141344cd1fd0a4f28419497f9722a3daafe3b4186f6b6457e091a3600080546001600160a01b0319166001600160a01b0392909216919091179055565b6000818484111561149a5760405162461bcd60e51b81526004018080602001828103825283818151815260200191508051906020019080838360005b8381101561145f578181015183820152602001611447565b50505050905090810190601f16801561148c5780820380516001836020036101000a031916815260200191505b509250505060405180910390fd5b505050900390565b60e01c90565b600060443d10156114b8576104de565b600481823e6308c379a06114cc82516114a2565b146114d6576104de565b6040513d600319016004823e80513d67ffffffffffffffff816024840111818411171561150657505050506104de565b8284019250825191508082111561152057505050506104de565b503d83016020828401011115611538575050506104de565b601f01601f191681016020016040529150509056fe4f776e61626c653a206e6577206f776e657220697320746865207a65726f2061646472657373a26469706673582212205361783b1a68d0c64b26dce1d5473900f707a312f7ca998b856fd89e3329a5c064736f6c634300060c0033",
  "immutableReferences": {
    "26": [
      {
        "length": 32,
        "start": 1036
      }
    ],
    "29": [
      {
        "length": 32,
        "start": 2091
      },
      {
        "length": 32,
        "start": 2787
      },
      {
        "length": 32,
        "start": 3281
      },
      {
        "length": 32,
        "start": 3566
      },
      {
        "length": 32,
        "start": 3857
      }
    ],
    "1129": [
      {
        "length": 32,
        "start": 3317
      },
      {
        "length": 32,
        "start": 4104
      },
      {
        "length": 32,
        "start": 4315
      }
    ]
  },
  "source": "// SPDX-License-Identifier: agpl-3.0\npragma solidity >=0.6.12;\n\nimport \"./Ownable.sol\";\nimport \"./Uniswap.sol\";\nimport { FlashLoanReceiverBase } from \"./FlashLoanReceiverBase.sol\";\nimport { ILendingPool, ILendingPoolAddressesProvider, IERC20 } from \"./Interfaces.sol\";\nimport { SafeMath } from \"./Libraries.sol\";\n\n/*\n* A contract that liquidates an aave loan using a flash loan:\n*\n*   call executeFlashLoans() to begin the liquidation\n*\n*/\ncontract LiquidateLoan is FlashLoanReceiverBase, Ownable {\n\n    IUniswapV2Router02 public immutable swapRouter;\n    using SafeMath for uint256;\n\n    event ErrorHandled(string stringFailure);\n\n    // instantiate lending pool addresses provider and get lending pool address\n    constructor(\n        ILendingPoolAddressesProvider _addressProvider,\n        IUniswapV2Router02 _uniswapV2Router\n    ) FlashLoanReceiverBase(_addressProvider) public {\n        // instantiate swap router to handle exchange\n        swapRouter = _uniswapV2Router;\n    }\n\n    /**\n        This function is called after your contract has received the flash loaned amount\n     */\n    function executeOperation(\n        address[] calldata assets,\n        uint256[] calldata amounts,\n        uint256[] calldata premiums,\n        address /* initiator */,\n        bytes calldata params\n    )\n        external\n        override\n        returns (bool)\n    {\n        // collateral - the address of the token that we will be compensated in\n        // userToLiquidate - id of the user to liquidate\n        // swapPath - path for uniswap\n        (address collateral, address userToLiquidate, address[] memory swapPath, address receivedToken) = abi.decode(params, (address, address, address[], address));\n\n        // liquidate unhealthy loan\n        uint256 loanAmount = amounts[0];\n        address loanAsset = assets[0];\n        uint256 flashloanFee = premiums[0];\n        uint256 flashLoanRepayment = loanAmount.add(flashloanFee);\n\n        bool receiveAToken = receivedToken != collateral;\n        liquidateLoan(collateral, loanAsset, userToLiquidate, loanAmount, receiveAToken);\n\n        // swap collateral from collateral back to loan asset from flashloan to pay it off\n        if (collateral != loanAsset) {\n            // require at least the flash loan repayment amount out as a safety\n            swapCollateral(receivedToken, flashLoanRepayment, swapPath);\n        }\n\n        // Pay to owner the profits\n        uint256 profit = IERC20(loanAsset).balanceOf(address(this)).sub(flashLoanRepayment);\n        require(profit > 0 , \"No profit\");\n        require(IERC20(loanAsset).transfer(owner(), profit), \"profit transfer error\");\n\n        // Approve the LendingPool contract to *pull* the owed amount + premiums\n        require(IERC20(loanAsset).approve(address(LENDING_POOL), flashLoanRepayment), \"flash loan repayment error\");\n\n        return true;\n    }\n\n    function liquidateLoan(address _collateral, address _reserve, address _user, uint256 _amount, bool _receiveAToken) private {\n        require(IERC20(_reserve).approve(address(LENDING_POOL), _amount), \"liquidate loan approval error\");\n        LENDING_POOL.liquidationCall(_collateral, _reserve, _user, _amount, _receiveAToken);\n    }\n\n    // assumes the balance of the token is on the contract\n    function swapCollateral(address collateral, uint amountOutMin, address[] memory swapPath) private {\n        IERC20 collateralToken = IERC20(collateral);\n        uint256 amountToTrade = collateralToken.balanceOf(address(this));\n\n        // grant swap access to your token, swap ALL of the collateral over to the debt asset\n        require(collateralToken.approve(address(swapRouter), amountToTrade), \"swap approval error\");\n\n        // Trade 1: Execute swap from collateral into designated ERC20 token on swap\n        try swapRouter.swapExactTokensForTokens(\n                amountToTrade,\n                amountOutMin,\n                swapPath,\n                address(this),\n                block.timestamp + 10) { }\n        catch Error(string memory reason)\n        {\n            // for debugging, swallow the error\n            emit ErrorHandled(reason);\n        }\n        catch\n        {\n\n        }\n    }\n\n    /*\n    * This function is manually called to commence the flash loans sequence\n    * to make executing a liquidation  flexible calculations are done outside of the contract and sent via parameters here\n    * _assetToLiquidate - the token address of the asset that will be liquidated\n    * _flashAmt - flash loan amount (number of tokens) which is exactly the amount that will be liquidated\n    * _collateral - the token address of the collateral. This is the token that will be received after liquidating loans\n    * _userToLiquidate - user ID of the loan that will be liquidated\n    * _swapPath - the path that uniswap will use to swap tokens back to original tokens\n    * _receivedToken - the collateral or AToken that will be received, if this is not the same as collateral, then liquidation will receive AToken\n    */\n    function executeFlashLoans(address _assetToLiquidate, uint256 _flashAmt, address _collateral, address _userToLiquidate, address[] memory _swapPath, address _receivedToken) public onlyOwner {\n        address receiverAddress = address(this);\n\n        // the various assets to be flashed\n        address[] memory assets = new address[](1);\n        assets[0] = _assetToLiquidate;\n\n        // the amount to be flashed for each asset\n        uint256[] memory amounts = new uint256[](1);\n        amounts[0] = _flashAmt;\n\n        // 0 = no debt, 1 = stable, 2 = variable\n        uint256[] memory modes = new uint256[](1);\n        modes[0] = 0;\n\n        // passing these params to executeOperation so that they can be used to liquidate the loan and perform the swap\n        bytes memory params = abi.encode(_collateral, _userToLiquidate, _swapPath, _receivedToken);\n        uint16 referralCode = 0;\n\n        LENDING_POOL.flashLoan(\n            receiverAddress,\n            assets,\n            amounts,\n            modes,\n            // mode is set to 0, no debt will be accrued\n            address(this),\n            params,\n            referralCode\n        );\n    }\n\n}\n",
  "sourcePath": "/Users/diwu/Projects/moola-liquidator-contract/contracts/LiquidateLoan.sol",
  "compiler": {
    "name": "solc",
    "version": "0.6.12+commit.27d51765.Emscripten.clang"
  },
  "schemaVersion": "3.4.1",
  "updatedAt": "2021-12-17T06:20:25.212Z",
  "devdoc": {
    "kind": "dev",
    "methods": {
      "isOwner()": {
        "details": "Returns true if the caller is the current owner."
      },
      "owner()": {
        "details": "Returns the address of the current owner."
      },
      "renounceOwnership()": {
        "details": "Leaves the contract without owner. It will not be possible to call `onlyOwner` functions anymore. Can only be called by the current owner. > Note: Renouncing ownership will leave the contract without an owner, thereby removing any functionality that is only available to the owner."
      },
      "transferOwnership(address)": {
        "details": "Transfers ownership of the contract to a new account (`newOwner`). Can only be called by the current owner."
      }
    },
    "version": 1
  },
  "userdoc": {
    "kind": "user",
    "methods": {
      "executeOperation(address[],uint256[],uint256[],address,bytes)": {
        "notice": "This function is called after your contract has received the flash loaned amount"
      }
    },
    "version": 1
  }
}